:020000040800F2
:1080000000400020498E0008098A00080B8A0008F9
:108010000000000000000000000000000000000060
:10802000000000000000000000000000D5F2000881
:108030000000000000000000A1F30008E5F30008C4
:10804000998E000800000000998E00080D8A000833
:10805000158A0008998E0008998E0008178A000872
:1080600000000000218A0008998E0008998E0008FF
:10807000318A0008998E0008998E000800000000DF
:10808000998E0008998E0008998E0008998E000834
:10809000998E0008998E0008418A0008518A0008CC
:1080A000718A0008918A0008998E0008A18A000848
:1080B000B18A0008C18A000800000000D18A0008C7
:1080C00010B5064C2378002B07D1054B002B02D0AE
:1080D000044800E000BF0123237010BD40060020CB
:1080E000000000007C040108044B10B5002B03D0F5
:1080F0000349044800E000BF10BDC0460000000076
:10810000440600207C0401080023C25C0133002ADD
:10811000FBD1581E7047000002B47146490849005F
:10812000095649008E4402BC7047C04602B47146ED
:1081300049084900095C49008E4402BC7047C046AA
:1081400003B47146490840004900095E49008E4465
:1081500003BC704703B47146490840004900095AFE
:1081600049008E4403BC7047002243088B4274D3FD
:1081700003098B425FD3030A8B4244D3030B8B4228
:1081800028D3030C8B420DD3FF22090212BA030C31
:108190008B4202D31212090265D0030B8B4219D312
:1081A00000E0090AC30B8B4201D3CB03C01A524132
:1081B000830B8B4201D38B03C01A5241430B8B427A
:1081C00001D34B03C01A5241030B8B4201D30B0363
:1081D000C01A5241C30A8B4201D3CB02C01A52418A
:1081E000830A8B4201D38B02C01A5241430A8B424D
:1081F00001D34B02C01A5241030A8B4201D30B0236
:10820000C01A5241CDD2C3098B4201D3CB01C01A4F
:10821000524183098B4201D38B01C01A5241430959
:108220008B4201D34B01C01A524103098B4201D347
:108230000B01C01A5241C3088B4201D3CB00C01AB4
:10824000524183088B4201D38B00C01A524143082C
:108250008B4201D34B00C01A5241411A00D2014651
:10826000524110467047FFE701B5002000F006F8C4
:1082700002BDC0460029F7D076E770477047C04678
:108280001FB50C22002101A807F039FC08211A4C67
:108290001A4B6161802149022360A1610023C22140
:1082A00001226360A360E360FF3123622000631D4D
:1082B0002261E161DA77A26201F084FB002801D03B
:1082C00000F034FB0423019380235B01029302231B
:1082D000200001A9039301F041FD002801D000F026
:1082E00025FB0823200001A9019301F037FD002898
:1082F00001D000F01BFB1FBD641A002000240140C8
:1083000070B5060088B01422002103A807F0F7FB1F
:10831000294B32689A424DD18020284B80009969C0
:108320000025014399619A6903240240802000924C
:10833000009A596980020143596180215A69C90232
:1083400002400192019A5A6990200A435A615B697E
:10835000C0050B400293029B102303A903930494CE
:10836000059501F0BFFF0123154803A90393049469
:10837000059501F0B7FF134C134B200023608023B9
:10838000E360DB1823618023DB006560A560636127
:10839000A561E56101F0D8FDA84201D000F0C6FA60
:1083A0000C20002203213463666201F085FD0C205D
:1083B00001F0B6FD08B070BD00240140001002407D
:1083C00000040048201A00200800024007B50120E0
:1083D000084A516901435161536903210340002256
:1083E00001930830019B01F067FD092001F098FD21
:1083F00007BDC0460010024070B5002694B02E2282
:10840000310008A8079607F07AFB314B1B689847A4
:10841000304D3E21280000F08BFF0D21280000F098
:108420008AFF2D4800F054FDFA202C4C8000236870
:1084300098472B4800F04CFDFA202368000198472C
:10844000300000F0C7FF3100684601F0EBF8254B23
:1084500068460293244B039301F016F9234800F079
:1084600037FD280007A900F069FF792107A807F068
:1084700029FCB04202D0684601F0D6F9322107A8A3
:1084800000F01FFD1A4800F023FD280007A900F0A6
:1084900055FF792107A807F015FC00280CD0012111
:1084A000FF20144A01F016FA0D2805D1236803387D
:1084B0009847114800F00CFD322107A800F001FD9B
:1084C0000E4800F005FD23680D489847DAE7C046DE
:1084D000540400208C200020BC040108000400206B
:1084E000D2040108F7040108E7040108080501089F
:1084F000220501083B050108410501085205010854
:10850000905F0100034B0360034B0B6080235B0013
:10851000136070475C0A00205C06002030B589B00B
:1085200001A80200064B32CB32C232CB32C21B68EA
:108530000021136006F001FB024B186009B030BD4A
:1085400094040108A41A0020F0B58BB01422002175
:1085500005A807F0D4FA8020354B00035969A027FD
:10856000014359615A699026024080200192019A84
:108570005969C003014359615A692E4D0240802058
:108580000292029A596980020143596180215A6915
:10859000C90202400392039A5A697F000A435A6152
:1085A0005B69F6050B403000390004930022049B00
:1085B00001F0C0FF002228001F4901F0BBFF80230B
:1085C00000249B0105A91D4805930694079401F01A
:1085D00089FE0597403F3000FF3F05A906970794A5
:1085E000089401F07FFE812328005B0005A9059314
:1085F0000694079401F076FE0F4B280005A9059319
:1086000006970794089401F06DFE202305930C4B08
:10861000280005A90693079401F064FE22000321B7
:10862000072001F049FC072001F07AFC0BB0F0BDF7
:1086300000100240000400480C90000000080048B0
:108640000000111010B5134B134C01222360134B83
:10865000200063600023E260A36023616361A36183
:10866000E361236201F0C0FF002801D000F05EF951
:108670000021200002F03CFB002801D000F056F958
:108680000021200002F074FB002801D000F04EF918
:1086900010BDC04600540040A81A00200E0900205A
:1086A00010B5134B134C01222360134B2000636061
:1086B0000023E260A36023616361A361E36123623D
:1086C00001F092FF002801D000F030F900212000D5
:1086D00002F00EFB002801D000F028F90021200054
:1086E00002F046FB002801D000F020F910BDC04682
:1086F00000580040F41A00205D3E302030B50400E0
:108700008BB01422002105A807F0F9F923682D4A3F
:1087100093422AD180212C4CC902626903250A4365
:108720006261636929480B400193019B90239B0080
:108730000593122305A90693113B07930993089506
:1087400001F0D0FD8021E26989030A43E261E36917
:1087500017200B40029300222900029B01F0ACFB82
:10876000172001F0DDFB0BB030BD194A9342FAD15E
:108770008021154CC902626903250A43626163695D
:1087800012480B400393039BC023DB010593122384
:108790000693113B079305A904330993089501F04B
:1087A000A1FD8021E269C9030A43E261E36918205F
:1087B0000B40049300222900049B01F07DFB18204C
:1087C000CFE7C046005400400010024000040048BB
:1087D000005800400023164916489A0010180068F7
:1087E00001335050302BF7D18022134B12041969FA
:1087F0000A431A618022996A92020A439A621A69AC
:108800000E490A401A619A6A0D490A409A62032287
:108810000C4B1968914319600121186801431960D4
:1088200019689143196019680A431A607047C04675
:10883000000000200080000800100240FFFF7FFFC2
:10884000FFFFFDFF0000014030B5102597B0182252
:1088500000210CA807F053F92A00002101A807F015
:108860004EF91422002105A807F049F913230A93B1
:1088700080235B02139380235B0301241493002362
:108880000E9510950AA80E3D0B940D940F94129519
:10889000159303F097F8002801D072B6FEE707237E
:1088A00003900490210001A80193029503F056FB68
:1088B000002801D072B6FEE7074B0790059380238E
:1088C000089005A8099303F05DFC002801D072B65A
:1088D000FEE717B030BDC0462100020010B5FFF71B
:1088E00079FF01F04DF8FFF7AFFF00F01BF9084BDF
:1088F0001B689847074B1B68984700F027FB00F060
:108900003FFB00F06DFBFFF709FE06F011F9FEE7F3
:108910000C04002004040020034B026810B59A42A6
:1089200001D101F03DF810BD0048014072B6FEE7EC
:108930007047000007B50120134B99690143996105
:1089400080219A69490502400092009ADA6900186C
:108950000A43DA61DB6900220B40019303214042A4
:10896000019B01F0A9FA03210022080001F0A4FAFA
:10897000032001F0D5FA00220321042001F09CFA23
:10898000042001F0CDFA07BD0010024010B501002F
:1089900086B00022162001F08FFA162001F0C0FAEE
:1089A0008020144AC002916901439161936969462C
:1089B0000340019302A8019B03F0B4FB03F0A2FB68
:1089C0000D4C0E4B0E4923600E4BE360FFF7CCFBC2
:1089D00000230138606020002361A36003F074FE6F
:1089E00003000120002B02D1200003F027FD06B078
:1089F00010BDC04600100240A41B002000480140EA
:108A000040420F00E7030000FEE7FEE710B501F06B
:108A1000C9FB10BD704710B5202001F0A7FD10BDA7
:108A200010B5024801F051FB10BDC046201A0020CD
:108A300010B5024801F002F910BDC046641A0020CA
:108A400010B5024803F054FD10BDC046A41B002021
:108A5000064810B503689A69E023DB001A4202D089
:108A600002F006F910BD01F069FEFBE7A81A00202C
:108A7000064810B503689A69E023DB001A4202D069
:108A800002F0F6F810BD01F059FEFBE7F41A0020E1
:108A900010B5024803F038FC10BDC046401B002052
:108AA00010B5024800F004FC10BDC0467C1F002039
:108AB00010B5024800F0FCFB10BDC046441E00206B
:108AC00010B5024800F0F4FB10BDC046E01E0020C7
:108AD00010B5024802F026FA10BDC046EC2E002068
:108AE0000B4A0C490300891A0B4A10B5106800287C
:108AF00001D10A4810601068C3188B4206D906F0ED
:108B000097FF0C2303600120404210BD1360FCE777
:108B10000004000000400020B00A0020F0310020D6
:108B20007047000010B586B01022002102A806F0A0
:108B3000E6FF08220021684606F0E1FF144C154BC1
:108B4000154A23602F23636000232000A360E260A6
:108B50002361A36103F0B8FD002801D0FFF7E6FE12
:108B6000802320005B0102A9029303F03BFE002852
:108B700001D0FFF7DBFE002369462000009301933C
:108B800004F01AF8002801D0FFF7D0FE06B010BD9F
:108B9000EC1B002000040040FFFF0000074B0268B0
:108BA00082B09A4208D10220054AD1690143D161BD
:108BB000D36903400193019B02B070470004004059
:108BC000001002400B480C4B10B5036096239B012C
:108BD0000C224360002342618360C36003618361B0
:108BE000C3610362436204F0E1FB002801D0FFF798
:108BF0009DFE10BDB81C0020003801400B480C4BF6
:108C000010B5036096239B010C2243600023426150
:108C10008360C36003618361C3610362436204F0E4
:108C2000C5FB002801D0FFF781FE10BDC01D00204C
:108C3000004400400B480C4B10B50360E1231B02BD
:108C40000C224360002342618360C360036183613F
:108C5000C3610362436204F0A9FB002801D0FFF75F
:108C600065FE10BD341C0020004800400C480D4B30
:108C700010B50C220360962342619B01C022436021
:108C8000002392008360C36003618261C361036259
:108C9000436204F08BFB002801D0FFF747FE10BDB4
:108CA0003C1D0020004C0040F0B504008FB01422A1
:108CB000002109A806F023FF23685C4A93422CD1C7
:108CC00080205B4BC0019969002501439961802197
:108CD0009A69890202400092009A5A6990200A43D8
:108CE0005A615B6903240B400193019BC023DB00A5
:108CF0000993022309A90A93C005013B0D930B9523
:108D00000C9401F0EFFA1B202A00210001F0D4F8A6
:108D10001B2001F005F90FB0F0BD464A934226D161
:108D20008022434B9202D96990201143D961D969BD
:108D30000025114002910299596903241143596198
:108D40005B6909A91A400392039B0C2309930A3B10
:108D50000A93C005013B0D930B950C9401F0C2FAE8
:108D60001C202A00210001F0A7F81C20D1E7324A7C
:108D7000934226D180222E4BD202D969002511437D
:108D8000D961D969032411400491049959691143A7
:108D900059615B690B951A400592059BC0231B0125
:108DA000099302230A93DB180C940D93234809A915
:108DB00001F098FA1D202A00210001F07DF81D2005
:108DC000A7E71F4A9342A6D18020194B0003D96917
:108DD00002270143D961DA6900250240802006920A
:108DE000069A596980020143596180215A69032416
:108DF0000240902004260792079A5A69C9020A4342
:108E00005A615B69C0050B400893089B0D4B09A98B
:108E100009930A970B950C940D9601F063FA802341
:108E20000A9709930B950C940D96BFE70038014003
:108E30000010024000440040004800400004004888
:108E4000004C0040038000000D4885460D480E4947
:108E50000E4A002302E0D458C4500433C4188C4294
:108E6000F9D30B4A0B4C002301E013600432A242F9
:108E7000FBD3FFF755FE06F0E1FDFFF72FFDFEE700
:108E800000400020000400203C0600209C0A01084D
:108E900040060020F0310020FEE770B50C0006000F
:108EA00001002000150006F021FE00232A00635572
:108EB0003100200006F00CFEC0B2431E9841C0B243
:108EC00070BD10B50A00002106F019FE10BD0000AB
:108ED0000FB400B5C3B044AB04CBFF2102A801938B
:108EE00006F07EFF02A8FFF70FF9044B81B21B6862
:108EF00002A8984743B008BC04B0184758040020A3
:108F00000A0010B5102815D080214900884211D0E0
:108F100001280DD0041FFC398C43A4B2002C07D0CB
:108F200080210902884203D080214901884203D16F
:108F3000044B01E09023DB0503490C680100180095
:108F4000A04710BD000400481804002010B5024BD3
:108F50001B68984710BDC04614040020044B1A68D3
:108F6000044B1A60044B1A68044B1A607047C046E1
:108F700038040020C02100204004002018200020D8
:108F8000044B10B51B689847034B1B689847FFF7C5
:108F9000E5FF10BD3C04002044040020084B1A6883
:108FA000084B1A60084B1A68084B1A60084B1A687D
:108FB000084B1A60084B1A68084B1A607047C04685
:108FC00010040020441E00204C0400207C1F0020C0
:108FD000500400202421002048040020E01E00202E
:108FE000074B10B51B689847064B1B689847064B04
:108FF0001B689847054B1B689847FFF7CFFF10BDCC
:109000001C040020200400202C0400202804002040
:1090100010B5040040210730FFF753FF2000402126
:109020004A30FFF74EFF2200002396329834138017
:10903000238010BDF7B506000D004A36040040211C
:1090400030000192FFF73DFF2800FFF75DF8310087
:1090500002002800FFF721FF05003000FFF754F859
:109060002300174F4833009318803B689847019BB3
:109070003100C3180193009B20681A88114B1B68AC
:109080009847260090363378012B0DD03B689847DF
:10909000019B98420FD92300012293331A700A4B87
:1090A00020681B6898470325002320003370FFF7D2
:1090B000AFFF2800FEBD054B01201B689847E0E785
:1090C00008040020340400202404002000040020B0
:1090D000F0B50400274D85B02B6817000391984721
:1090E0002300983301931988234B073101221B6811
:1090F000C71961182068984700262300903302930F
:109100001A782B68012A1CD19847B84205D22B68DF
:1091100098471A4B381A1B689847220003999632D1
:10912000019B10881B88984218D10023029A2000C6
:109130001370220093321370FFF76AFF300005B0FE
:10914000F0BD9847B84204D9230001220326933387
:109150001A700A4B01201B689847CEE71388581CE9
:1091600080B21080E318DB79002BD9D00B7001316D
:10917000D6E7C04608040020300400200004002088
:1091800070B504009834238801339BB223803F2BB1
:1091900001D90023238020230D001D40194213D044
:1091A00003681E001A685C36928C36885A33324047
:1091B000D2B2827124880419E2711A88002A03D07D
:1091C0001A88013A92B21A80044B194204D0002D39
:1091D00002D001239030037070BDC046240400000B
:1091E00002680748136819680140196099682330BC
:1091F000FF30814399602023D36700235366704773
:10920000DFFEFFFF036810B59A6F212A0DD1180009
:10921000523001881A68002908D1136880318B43C5
:109220001360402311680B43136010BDD96C0C7898
:1092300001311485D9640388013B9BB20380F4E7B4
:1092400003680C4A934204D10B4B012290331A70ED
:1092500008E00A4A934206D0094A934205D0094AD7
:10926000934204D07047084BEFE7084BEDE7084BFB
:10927000EBE7C046003801407C1F0020004400405E
:1092800000480040004C0040441E0020E01E00202A
:10929000242100204021006810B5026813688B4328
:1092A00013602023836700238366FFF7C9FF10BD87
:1092B000036870B51B680400DD691E6820231D4229
:1092C00004D01E4202D02900FFF75AFF0A232B4088
:1092D000082B22D122681268136229002000FFF7B0
:1092E0004FFF0022236874331A702B0033439B0610
:1092F00002D42000FFF774FF80231D4204D01E42D9
:1093000002D02000FFF77EFF40231D4204D01E4202
:1093100002D02000FFF7BEFF70BD022BDAD00A2B6F
:10932000E3D1082223681B681A62063A1A62D4E75E
:10933000903001707047913001707047F8B50400AB
:109340000D0026008C363378012B0ED1E71C390036
:109350002800228806F0CAFB38004022002106F0CF
:10936000CEFB002333702380F8BDC046012005F0FA
:109370000FFCE6E7030030B50A7891338270197864
:10938000134B914213D11A88002A0FD03E2A03D8DA
:10939000541C82181C80D1700022198801254418A1
:1093A000E27004008C3425701A80018030BD010009
:1093B00090310978914202D01988402901D10021C9
:1093C000198019884C1C40181C80C270EEE7C046FA
:1093D000B40A0020F0B500273B4D8FB01A210400DD
:1093E0002B683A4898473A4E0520336898472E2212
:1093F000390002A8019706F082FB8020012140017C
:10940000FFF77EFDFA223348920001A9FFF760FEC4
:10941000052033689847BC4207D0012C2ED010217C
:109420002B682D489847012410E02C4901A806F02C
:109430005FFC00280DD032212B6801A898473368C3
:109440000520984718212B682548984720000FB021
:10945000F0BD802001214001FFF752FD14212B684F
:1094600020489847336805209847BFF34F8F1E4B1D
:109470001E4ADA60BFF34F8FC046FDE71C4901A8C2
:1094800006F036FC00280CD032212B6801A8984742
:1094900033680520984718212B68114898473C00ED
:1094A000D4E7802021004001FFF72AFD14212B681A
:1094B0000C489847BFF34F8F0B4B0C4ADA60BFF351
:1094C0004F8FC046FDE7C0465804002079050108CB
:1094D00000040020E01E0020CD05010893050108CE
:1094E0009A050108B205010800ED00E00400FA0544
:1094F000C6050108F0B50D0000218FB0040017006B
:1095000002A82E22019106F0FAFA164E002D23D061
:109510002B002200144901A806F0B4FB336881B285
:1095200001A89847114CC82201A92000FFF782FD2D
:1095300001A83221FFF7C5FC3A0001A92000FFF77E
:10954000C7FD3221336801A89847094B05201B68E5
:10955000984700200FB0F0BD2200064901A806F090
:1095600091FBDBE758040020DD050108E01E002028
:1095700000040020E0050108F0B50D00002191B0C5
:109580001F0016AB1B880400009204A82E22019332
:10959000039106F0B4FA002D34D02B0022001C49B0
:1095A00003A806F06FFB1B4B84B221001B6803A8C5
:1095B0009847184D21002B6803A89847164C0520A2
:1095C00023689847154EC82203A93000FFF732FDE3
:1095D00003A83221FFF775FC019A03A93000FFF7B9
:1095E00077FD32212B6803A8984723680520984708
:1095F0003A00009803A906F079FA0020009BD8559C
:1096000011B0F0BD2200064903A806F03BFBCAE7F3
:10961000DD0501085804002000040020E01E0020A1
:10962000E005010837B50400002903D0012915D051
:1096300000203EBD0E4B018383600E4B43600E4BFA
:109640004361112006F03AFA0C4B020020610093AE
:10965000002110230A48FFF78FFFE9E7044B8360DE
:10966000084B4360044B436180235B000383E8E7BE
:10967000F704010800A1BC33010401001027000019
:10968000E5050108C0CA89367FB50400C82200215B
:109690002848FFF72FFFC82221692748FFF72AFF34
:1096A000C822E1682548FFF725FFC822A1682448A1
:1096B000FFF720FF00256B469E1D9D7131000A2299
:1096C000207D06F0F7F93100C8221E48FFF712FF8F
:1096D0006B46DE1DDD710A223100607D06F0EAF97D
:1096E0003100C8221848FFF705FFA37D17490295EE
:1096F000012B02D0002B03D1154902A806F0F0FA85
:1097000002A9C8221348FFF7F5FE00230393E37D67
:109710000E49012B02D0002B03D10D4903A806F0FE
:10972000DFFAC82203A90C48FFF7E4FE002004B0CA
:1097300070BDC046F30501080106010810060108C6
:109740001F0601082E0601083D060108480601080B
:109750004B0601084F0601085B06010810B52749B2
:10976000040006F0C5FA0D23002845D12000244945
:1097700006F0BEFA0A2300283ED12000214906F057
:10978000B7FA0B23002837D120001F4906F0B0FAA2
:109790000223002830D120001C4906F0A9FA0C232E
:1097A000002829D120001A4906F0A2FA0423002833
:1097B00022D12000174906F09BFA052300281BD16F
:1097C0002000154906F094FA0723002814D1200040
:1097D000124906F08DFA082300280DD12000104907
:1097E00006F086FA0623002806D120000D4906F06F
:1097F0007FFA43424341DBB2180010BD6606010800
:10980000720601087D060108860601089606010811
:10981000A6060108B3060108BC060108C306010834
:10982000D00601086D060108002170B590B02E2207
:1098300004A80391322406F062F91E4B0021009324
:1098400003AA23001C48FFF797FE1C4903A806F053
:109850004FFA1B4E1B4D002806D03368210003A889
:10986000984705202B689847210003A8FFF729FB9C
:10987000154A03A91548FFF72BFC154903A806F064
:1098800037FA336800280AD0322103A898472B689A
:109890000520984703A8FFF761FF10B070BD2100B5
:1098A00003A898472B6805209847210003A8FFF7D5
:1098B00008FBC2E788130000F20601086D060108E4
:1098C000580400200004002010270000E01E0020A3
:1098D00072060108F0B50024050095B002910392CC
:1098E00021002E2208A8079406F009F9102228006A
:1098F00005A90594069406F0DDF83234039A029B1C
:109900001A49009507A806F0BDF9194EC1B233688F
:1099100007A89847174FC82207A93800FFF78AFB06
:10992000210007A8FFF7CDFA134A07A93800FFF76F
:10993000CFFB3368210007A898470F4A07A93800D2
:10994000FFF7C6FB2100336807A898470B4907A813
:1099500006F0CEF9002804D1210007A8FFF7B1FADC
:10996000CCE707A8FFF7FAFE15B0F0BD0007010825
:1099700058040020E01E0020881300001207010890
:109980001023064A10B5116800200B431360FEF740
:10999000FDFFFEF7CFFF002010BDC04600200240B3
:1099A000034A044B11681B785B1813607047C0466C
:1099B0003422002060040020014B18687047C04624
:1099C00034220020F8B504000120002C00D108E169
:1099D000914B22689A4204D0D12190484900FEF769
:1099E000A7FF63688E4A134208D080221206934272
:1099F00004D0A4218948FF31FEF79AFF1823A268FA
:109A00009A4304D0D22185484900FEF791FF2023D4
:109A1000E2689A4304D0A6218048FF31FEF788FF10
:109A20002369013B012B04D9D3217C484900FEF76F
:109A30007FFFA37E012B04D9A8217848FF31FEF7D0
:109A400077FFE37E012B04D9D42174484900FEF747
:109A50006FFF744B226A1A4204D0AA216F48FF316B
:109A6000FEF766FFE36940211A008A430CD01A0012
:109A7000C03A8A4308D0C222FF32934204D06B31ED
:109A80006648FF31FEF754FF651DEB7F012B04D9BB
:109A9000AC216248FF31FEF74BFF04226369043BAF
:109AA000934304D0D6215D484900FEF741FFA36AE5
:109AB000012B04D9AE215948FF31FEF739FF237E2F
:109AC000012B04D9D72155484900FEF731FF637EA9
:109AD000012B04D9B0215148FF31FEF729FFA36BB8
:109AE000002B06D122003432E36320001370FEF70E
:109AF00007FCA36BDB0600D588E023680422996885
:109B000008001040114200D080E0A26B464911408D
:109B100002220A430321A2639A680A40012A05D15E
:109B2000196811420ED1DA6812040BD41821DA68D0
:109B30008A43A1680A43DA601A6961689200920850
:109B40000A431A61DA6839490A40DA60277E627E80
:109B5000A17ED203BF0317434A039446A26A013A87
:109B6000561EB2411603E268174362461743226944
:109B7000022A00D10420EA7F52003A4332430243D2
:109B8000E07E012804D100292CD1802149020A431A
:109B9000C220E169FF30814202D0206A01430A43BA
:109BA0008020D96840051143D960E16A814202D022
:109BB000481E062807D8072558692940A843586138
:109BC000586901435961DB6819490B40934211D12F
:109BD00000200322E063A36B93431A000123134385
:109BE000A363F8BD2021A56B2943A163E16B084362
:109BF000E063CDE71222A36B012093431A001023E8
:109C00001343A363E36B0343E363EAE71023A26B0D
:109C100001201343A363E4E7002401401C0701086B
:109C2000FFFFFFBFFFF3FFFFFDFEFFFF1902FEFF77
:109C3000E7FF3F837047704770470000424B026860
:109C400070B504009A4203D040494148FEF770FEC7
:109C5000A37E012B03D93F493D48FEF769FE04224C
:109C60006369043B934304D0D1213948C900FEF70E
:109C70005FFE042223681968114202D0596811421C
:109C800006D108221968114228D05968114225D0FE
:109C9000A26BD20604D48022A16B92000A43A26375
:109CA000C022D9681201114212D1A27E002A0FD11E
:109CB0001A6812070CD59A6852073CD40C215A68CE
:109CC0008A435A60A36B244A1A4001231343A363B7
:109CD0002000FFF7AFFF0C2223681A60802523685D
:109CE0001A682A420CD05B682B4209D08023A26BF1
:109CF0005B021343A3632000FFF79DFF23681D60F1
:109D0000102223681968114214D05968114211D0E9
:109D1000A26A012A02D0DA68D20708D50222E16BD2
:109D200020000A43E26310221A60FFF785FF102229
:109D300023681A6070BD2023A26B1343A363012321
:109D4000E26B1343E363C3E700240140860600008F
:109D50001C07010887060000FEFEFFFF0023F0B588
:109D600085B003930268494B05000E009A4203D068
:109D700047494848FEF7DCFD3368112B03D94649B3
:109D80004448FEF7D5FD7368444A9B18012B03D95C
:109D900043494048FEF7CCFD8022EB6A52059342CE
:109DA0000DD0013B062B0AD9B368934207D0013B83
:109DB000062B04D9EE213748C900FEF7B9FD2C0067
:109DC000343423780220012B2FD0013820702B68E7
:109DD00004229F68390011400191174251D1376820
:109DE00030493A008C467168B840103A614538D025
:109DF000996A084398628020E96A400581420FD041
:109E0000013906290CD907205D69B1680540A942CE
:109E100006D05D69014085435D615D6929435961F3
:109E2000012A04D900200023237005B0F0BD1E4B89
:109E300080211A68102F12D0C9030A431A60102F0C
:109E4000F0D11A4B1A491868FEF78EF90A234343DA
:109E50000393039B002BE5D0039B013BF8E7090428
:109E6000EBE79D6A85439D62012ADBD853425A4144
:109E70000D4853420F4A05689B059B182B40036011
:109E8000D0E72023AA6B1343AB63CCE70024014047
:109E90006A0700001C0701086B07000000F0FFFFC5
:109EA0006C07000001100000082701405C0400203E
:109EB00040420F00FFFFBFFF70B504000D000329F3
:109EC00003D98B211348FEF733FDFF260320320010
:109ED0002040C0008240A9013140D2438140E3B21A
:109EE000002C0ADBC0200C4BA408A400E41880005E
:109EF00023581A401143215070BD0F200340083BE6
:109F000006489B089B001B18D86902401143D96181
:109F1000F2E7C0465407010800E100E000ED00E070
:109F200010B5002804DA9B210548FEF701FD10BD9D
:109F30001F2318401E3B8340024A1360F7E7C046C8
:109F40005407010800E100E070B504000120002C76
:109F500000D17DE023683F4A93420FD03E4A9342AE
:109F60000CD03E4A934209D03D4A934206D03D4A26
:109F7000934203D095213C48FEF7DAFC6368102237
:109F80001900914307D08022D201934203D0962139
:109F90003548FEF7CDFC4023A2689A4303D09721B1
:109FA0003148FEF7C5FC8023E2689A4303D098212C
:109FB0002D48FEF7BDFC23692C4A134207D08022AE
:109FC0009200934203D099212748FEF7B1FC6369C0
:109FD000274A134207D080221201934203D09A21CC
:109FE0002148FEF7A5FC2023A2699A4303D09B21B8
:109FF0001D48FEF79DFC1F4BE2691A4203D09C21CD
:10A000001948FEF795FC0223A51CEB7720681A4B34
:10A010000268A1681A4063680B43E1680B43216939
:10A020000B4361690B43A1690B43E1690B43134384
:10A030000360124B1421C018FEF796F8104B8000F5
:10A040002064E36300200123A063E418EB77E0774A
:10A0500070BDC046080002401C00024030000240B3
:10A0600044000240580002408F070108FFFEFFFF36
:10A07000FFFBFFFFFFCFFFFF0FC0FFFFF8FFFDBF9C
:10A080000000024070B5841CE37F022B04D004233F
:10A090008363033B180070BD0E210368056C1A68CA
:10A0A0008A431A6001221968914319601100A9407E
:10A0B000C36B5960E27700248318DC77426B13008E
:10A0C000A242E7D090472300E4E7F8B504273E001A
:10A0D000016CC26B8E40156803681C6835420DD058
:10A0E0003C420BD01968890602D41968B94319603B
:10A0F000C36A5660002B19D0984717E002273E002C
:10A100008E40354213D03C4211D01968890606D4DE
:10A110000A241968A14319600121C319D97756602F
:10A120000022431CDA77836A9342E5D1F8BD082602
:10A1300037008F403D42F9D03442F7D00E251C68DD
:10A14000AC431C6001231C008C405460821C836360
:10A15000D3770022C318DA77036BE5E70230C07FBC
:10A16000C0B270470C4B1021D86830B502000A40CD
:10A17000084205D002220948C4692243C2610A008C
:10A180000420D968014205D00121044C0243E5694D
:10A190002943E161DA6030BD00200240382200200E
:10A1A00070477047F8B5434D434CEB68DB0602D46B
:10A1B000EB685B070AD50123A6685B42A360FFF743
:10A1C000D1FF3000FFF7EDFF002323702023EA6862
:10A1D0001A421AD0EB602378002B16D02378012B7B
:10A1E00028D16368013B63606368002B1BD0A068C3
:10A1F000FFF7D6FF80230222A0681B01C018A060D1
:10A200002B6993432B6100F05BF82378DAB2002BC3
:10A2100008D107212B698B432B612B6927490B4000
:10A220002B612276F8BD01204042A0602370FFF729
:10A23000B7FFEAE72378022B09D104222B6900201B
:10A2400093432B61FFF7ACFF00232370DDE76368C6
:10A25000013B63606368002B19D0A3680233A360DD
:10A26000A668206961690B0C0F040121020C3A43B6
:10A27000226163612B698B432B612269636900232F
:10A28000E3612B6992B2194329613280BDE72378DB
:10A29000032B06D1A068FFF783FF01235B42A36075
:10A2A000D2E72378A068042B01D10238F3E70638FF
:10A2B000F1E7C0460020024038220020FFEBFFFFFC
:10A2C0000022064BDA61064B023219690A431A6111
:10A2D0004022586119690A431A61704738220020E8
:10A2E000002002409023F0B5DB0504000D0085B08E
:10A2F00098420FD0834B98420CD0834B984209D0A0
:10A30000824B984206D0824B984203D0B8218148B4
:10A31000FEF70EFB2B689AB2002A01D01B0C03D06B
:10A32000B9217C48FEF704FB6B68032B12D91A0095
:10A33000113A012A0ED9784A78491A4052187849B8
:10A340000A4207D0774A9B180B4203D0BA217148C2
:10A35000FEF7EEFAAB68022B03D9BB216D48FEF77E
:10A36000E7FA00272B681A00FA4001D105B0F0BDCA
:10A370000122BA4001921A400092019A134200D180
:10A38000BEE010226B687E009343013B012B1BD87B
:10A39000EB68012B05D9032B03D0CB215D48FEF7D9
:10A3A000C7FA0322B240A368012193431A00EB6865
:10A3B000B3401343A3606268019B9A436B681B0917
:10A3C0000B40BB40134363600322B240E368D143B8
:10A3D00093431A00AB680191B34013431022E3602A
:10A3E0006B689343022B29D19023DB059C420FD04D
:10A3F000444B9C420CD0444B9C4209D0434B9C4262
:10A4000006D0434B9C4203D0E3214248FEF790FA2A
:10A410002B69062B03D9E4213E48FEF789FA07226F
:10A420000F203A4092009040FB089B00E318196A05
:10A4300081432869904002000A431A622168019B07
:10A440006A68194003239C461340B3400B432360C2
:10A45000D30055D50120344B0F26996901439961EA
:10A460009B69B908034060463840800086400393EA
:10A47000039B2E4B8900C9188B68B3439026019328
:10A48000F6050023B4420CD01E4E0133B44208D06E
:10A490001D4E0133B44204D01C4E6346B44200D07A
:10A4A00002338340019803438B60214B00991E685F
:10A4B000C84331438C46D10302D4310001408C465D
:10A4C000614619605E68009931438C46910302D45D
:10A4D000310001408C46614659609E6800993143C5
:10A4E0008C46D10202D4310001408C46614699600D
:10A4F000DE6800993143920201D431000140D960F5
:10A5000001372FE70004004800080048000C00480D
:10A5100000140048C7070108FFFFDFFF0000EFEF4E
:10A52000FFFFFEFF0000DFEF0010024000000140CF
:10A530000004014070B505000C001600002904D18C
:10A54000A6210848FF31FEF7F3F9012E06D9D321E1
:10A5500004484900FEF7ECF9AC6170BD002EFBD158
:10A56000AC62FAE7C707010870470000044B10B55A
:10A570005A69104202D05861FFF7F6FF10BDC0467D
:10A580000004014003689A69920701D500229A628B
:10A5900001229969114202D199690A439A6170476F
:10A5A000002310B5CA0708D5030041331A782823C1
:10A5B0001A401A33282A00D0B0338A0708D502007F
:10A5C0002824413212782240A2420BD14422134364
:10A5D00009B2002901DAB822134301680A689A43D4
:10A5E0000A6010BDF422F2E770B504000120002CCF
:10A5F00000D188E02368494A934207D0484A9342F1
:10A6000004D0E6214748FF31FEF792F98023A26883
:10A61000DB009A4204D3F32142484900FEF788F94F
:10A62000E368013B012B04D9E8213E48FF31FEF7E6
:10A630007FF93D4E2369334204D0F4213948490063
:10A64000FEF776F96369FF2B04D9EA213548FF311B
:10A65000FEF76EF9A369072B04D9F52131484900AB
:10A66000FEF766F9314BE2691A4204D0EC212D481D
:10A67000FF31FEF75DF92E4B226A1A4204D0F62113
:10A6800028484900FEF754F9250041352B78DAB205
:10A69000002B05D12300403320001A70FEF72EF85E
:10A6A000242301212B702368A0681A688A431A604A
:10A6B0006168204A0A401A619A68E16832409A60EB
:10A6C000012921D18022120202439A6059681A4A54
:10A6D00000200A435A60DA6861693240DA60226910
:10A6E0000A43A16909020A43DA60216AE2690A435E
:10A6F0001A60012219680A431A60202360642B70D3
:10A7000020634234207070BD8422120202439A609A
:10A710000229DBD1802212015A60D7E700540040A1
:10A720000058004000080108FF7FFFFFFFFFF7FF10
:10A73000FFFFFDFFFFFFFFF000800002036810B580
:10A7400099691A68436B002B00D0984710BD704779
:10A75000704700000100036810B5040000201A686B
:10A76000423108700121500418D51A6818490A406E
:10A770001A60230041331A78292A15D1013A1A7038
:10A780002123200023630121FFF70AFF2300002279
:10A79000403320001A70FFF7DAFF10BDD20B0A42D7
:10A7A000E7D01A680B49E2E71A782A2AF5D1023A6B
:10A7B0001A702223200023630221FFF7F1FE2300F9
:10A7C0000022403320001A70FFF7C2FFE5E7C046C1
:10A7D000FFBFFFFFFF7FFFFF70470300F7B5282291
:10A7E00041331B7804000168134093423CD1FE279B
:10A7F0008D698E698B68CA68ED030192C268360C58
:10A80000ED0F3E40022A25D19B059A0D5B0F5E405D
:10A810003000062318401E4210D1A36C0133A364FC
:10A82000A36C022B09D10633A064CB612300403313
:10A83000187029002000FFF7CFFFF7BD802120000E
:10A840000902FFF7ADFE2300002240331A70019A7F
:10A850003A40EEE780210902FFF7A2FE2300002222
:10A8600040331A703200E4E70823CB610023403400
:10A870002370E2E770470000184B10B5C362002355
:10A8800002000363040020204132107053706363A0
:10A890004B0713D52368626A5B6A1370636A0133DE
:10A8A0006362238D002B09D0013B2385638D013B1F
:10A8B0009BB263850423626C1343636420000849E0
:10A8C000FFF76EFE102223682000DA6123000022C9
:10A8D00040331A70FFF7CEFF10BDC0460000FFFFE7
:10A8E00003800000704770470100020010B541313D
:10A8F0000C7800234032602C06D1403C0C7003637E
:10A900001370FFF7F0FF10BD03631370FFF7EAFF4A
:10A91000F9E7000070B50200050004000020423293
:10A9200041352B781070324A283BE2626085626CB8
:10A930000A436264022B2BD803212000FFF730FE6C
:10A9400028232B702B4BA06B6363236B00282ED026
:10A950001A001021113A8A4329D123681A68520437
:10A9600003D51A6824490A401A60FFF7F7FB01284B
:10A9700019D0A06B214B00224363230040331A708F
:10A98000FFF780FB002811D0A06B436B98470DE0C8
:10A9900020001B49FFF704FE2B78602B01D02023F9
:10A9A0002B700023CFE72000FFF79EFF70BDE06B08
:10A9B0000028F8D01022123B9343F4D123681A6880
:10A9C000120403D51A680F490A401A60FFF7C6FB44
:10A9D0000128E8D0E06B094B002243632300403399
:10A9E0001A70FFF74FFB0028E0D0E06BCDE7C046C0
:10A9F0000000FFFF41AB0008FFBFFFFFD3AC000822
:10AA000003800000FF7FFFFFF7B5036806001A68A8
:10AA10004136019220223578DA61082304000F00C4
:10AA20009D43212D50D140492000FFF7B9FD2563FA
:10AA3000802223681202596820000A435A605A682B
:10AA40003A490A405A60FFF79DFD019B01225B04D1
:10AA50003ED52268364913680B401360A36B002B68
:10AA600003D01B685B689BB263857B0711D5042309
:10AA70009F432368626A5B6A1370636A013363628F
:10AA8000238D002B05D0013B2385638D013B9BB2B9
:10AA90006385638D002B03D00423626C13436364CE
:10AAA0002300002242331A70656C626395421AD00B
:10AAB0002000616CFFF72EFF3378282B03D139007B
:10AAC0002000FFF7D9FEF7BD222DB1D11949ABE720
:10AAD000019BDB0B1342C8D02268174913680B4057
:10AAE0001360E36BBBE72700E36A144A40379342E5
:10AAF0000CD02000FFF72EFE2023104A2000E26237
:10AB0000337025633D70FFF7B5FEDCE72023327814
:10AB10002000337025633D70222A02D1FFF718FE12
:10AB2000D1E7FFF714FECEE70180000000E800FE49
:10AB3000FFBFFFFF02800000FF7FFFFF0000FFFF5D
:10AB40000300F7B5403301931B780400C76A0E0079
:10AB500015000220012B24D00123019A13704A0909
:10AB60001A4205D06A091A4202D02000FFF74CFFB2
:10AB70000123F20635D52A091A4232D0638D002B03
:10AB800020D1230041331A78282A0BD18022920445
:10AB9000974207D131002000FFF76EFE0020019B95
:10ABA0001870FEBD102219782368DA612929F5D1C1
:10ABB0002D498F42F2D02000FFF7E4FC2000FFF780
:10ABC000C9FDEBE710222368DA610423626C1343AA
:10ABD0006364264B1F42E1D12000616CFFF79AFEAF
:10ABE000DCE7012372071AD5AA081A4217D0638D31
:10ABF000002B0DD02368626A5B6A1370636A0133AD
:10AC00006362238D013B2385638D013B9BB263858A
:10AC1000638D002BC2D1144B9F42BFD0CEE70123DE
:10AC2000320706D5EA081A4203D02000FFF7D5FD07
:10AC3000B4E70123B207B1D5DD401D42AED0638D2C
:10AC4000002B0DD0636A2268197801339162636228
:10AC5000638D013B9BB26385238D013B23859DE77B
:10AC6000024B1F42AAD099E70000FFFFFFFFFFFE43
:10AC7000036870B59C6901211A68E50508D5D509F6
:10AC80000D4205D0456C2943416480214900D961BA
:10AC90000121650509D5D5090D4206D0456C07315E
:10ACA000294341648021C900D9610121A40509D546
:10ACB000D2090A4206D00222416C0A434264802231
:10ACC0009200DA610B23416C194201D0FFF722FE9A
:10ACD00070BD406A10B5836B002B01D000225A630F
:10ACE000C36B002B01D000225A63FFF7FDFD10BD9E
:10ACF000F8B51B4A036806000C00934206D0194AB7
:10AD0000934203D064211848FDF712FE174D2C42E0
:10AD100003D065211448FDF70BFE370041373B781F
:10AD20000220DAB29446202B18D1310040310B7842
:10AD3000012B13D0242301223B7033681868904301
:10AD40001860186805401D60186804431C60186886
:10AD500002431A60002063463B700870F8BDC0468D
:10AD6000005400400058004038080108FFEFFFFF82
:10AD7000F8B5194A036805000C00934206D0174A3B
:10AD8000934203D092211648FDF7D2FD0F2C03D930
:10AD900093211348FDF7CCFD2A004132137802209D
:10ADA000DFB2202B17D12E0040363378012B12D082
:10ADB000242313702B68013819680A4D81431960E8
:10ADC0001968240229400C431C6019680843186064
:10ADD000002017703070F8BD00540040005800404B
:10ADE00038080108FFF0FFFFF0B50400012587B027
:10ADF00000283BD0354B02689A4203D08521344865
:10AE0000FDF796FD334D635DDAB2002B05D1AA2321
:10AE10009B002000E25404F0A9FC03236355206842
:10AE200002F0A6FB0023012719006068834220D3AB
:10AE3000002228261100904234D823006A4610339D
:10AE400043CB43C203CB03C2A268E36861682068B6
:10AE500002F098FB0023621DD377012262551D008A
:10AE6000E369934202D1200000F097FD280007B06B
:10AE7000F0BD29262822B4465A43A21894446646B7
:10AE800037702826B4469444664633702B26B44661
:10AE900094446646D38601333170DBB29163D1634B
:10AEA0001164C3E733005343E3181F006A37FF37C9
:10AEB0003970013F3A70F97081336C3FF967FF33A5
:10AEC000803701323960D2B21960B4E7005C0040CB
:10AED00073080108A902000070B5AA25AD00435D02
:10AEE00004000220012B09D001236355206802F0E1
:10AEF00035FB206802F08BFD0020605570BD70B5F9
:10AF0000AA25AD00435D04000220012B08D00123D7
:10AF10006355631DD977206802F072FD00206055EB
:10AF200070BD0000F0B5040085B0006802F077FD48
:10AF3000030400D5DAE0206802F071FD43050CD56A
:10AF40002368B1490633DA8F20000A40DA8704F01B
:10AF500051FC00212000FFF7D2FF206802F05FFDC6
:10AF6000430405D52368A9490633DA8F0A40DA87F6
:10AF7000206802F054FD830405D52368A4490633F4
:10AF8000DA8F0A40DA87206802F049FDC3041CD535
:10AF9000042123680233DA8F8A43DA87DA8F49186B
:10AFA0008A43DA87B8239B00E25C012A04D100219E
:10AFB0002000E15400F005FD200004F03FFC236870
:10AFC00094490633DA8F0A40DA87206802F027FDB9
:10AFD000030511D5082123689A1CD08F063301433D
:10AFE000D187D98F8C480140D9870423D18F200085
:10AFF0000B43D38704F010FC206802F010FD80257D
:10B00000284220D0B82023688000991DCA8FAA4307
:10B01000CA87225C002A00D09DE3991CCD8F0432A0
:10B020002A43CA870822CD8F54332A43CA87012175
:10B030003C2221541B8820009B081340B922920017
:10B04000A35000F0BEFC206802F0E9FC830508D59F
:10B05000236872490633DA8F20000A40DA8704F049
:10B06000C2FB206802F0DBFCC30505D523686C49F0
:10B070000633DA8F0A40DA8705B0F0BD0F21D38F8F
:10B08000194000910F219AB20B4200D0DAE0102350
:10B09000110019401A4230D10388624A13408022BD
:10B0A000120213430380030050331A88230028330D
:10B0B0001B78DB00C3189B185B4A20009B181B8879
:10B0C000E26B9B059B0D6364D318E36304F080FB84
:10B0D000631DDA7F002A09D0206C002806D1802267
:10B0E000D97F114322684C321180D8772068821DA5
:10B0F000D38F1BB2002BC1DB1DE702888021160015
:10B10000090193B20E400A4222D0030050331A883C
:10B11000B4235B00E35CAC21DB00C3189B18434AFB
:10B1200089009B1822001B8869329B059B0DFF320A
:10B13000D3616118D28802F04FFF22683C4913881E
:10B1400020000B4080210B43138004F02BFBCDE744
:10B150001BB2002BCADA0388354A2500134080222F
:10B1600013430380030050331A88B4235B00E35C6D
:10B170006935DB00C3189B182C4AFF359B181B88C8
:10B180009B059B0DEB610DD0696900290AD0EA8807
:10B1900002F022FF6B69EA6931009B1820006B61A5
:10B1A00004F009FB2168214A0B0050331B888A18E0
:10B1B000D2182B69002B09D113881E480340802028
:10B1C0001380138800020343138008E03E2B10D83D
:10B1D000012558082B40C018800280B210800B88CF
:10B1E000154A1A40C0239B015340144A13430B8055
:10B1F0007CE71F2558092B405D426B41C01A104B5C
:10B20000800203439BB2DFE7FFFBFFFFFFBFFFFFAF
:10B21000FFDFFFFFFFEFFFFFFFF7FFFFFFFDFFFF78
:10B22000FFFEFFFF0F8FFFFF020400000604000077
:10B230008F0F0000FF83FFFF8FBFFFFF80800000A4
:10B240000080FFFF009B9B00C218019313889FB2F0
:10B250001BB2002B00DBE9E01388BB490B408021C7
:10B260000B4313802823009A5343E3181A001D0050
:10B270007532FF3212786935FF35002A1AD1020083
:10B28000503211882A78D2005218B0491218521838
:10B2900012889205950D002A00D1A6E01A006F329F
:10B2A0007D33FF331900FF322B001288096802F04A
:10B2B00093FE9AE019006C31FF3109782A7802294F
:10B2C00000D077E08026F601B4463E4002960600A4
:10B2D00065468133FF335036196836882F4234D0A3
:10B2E000D50076199A4D361876193588AD05AD0D0D
:10B2F0008D420DD90021196092008218138895495A
:10B30000194080239B014B4093490B43138002E07B
:10B31000491B1960F0D07B060ED52823009A8F496F
:10B320005343E3186933FF331B789B00C3181A8813
:10B330000A408B490A431A80002D56D02823009AD0
:10B340005343E3181A007132AAE7D50076197F4DEE
:10B35000361876193588AD05AD0D8D420DD9029997
:10B3600019609200821813887A49194080239B0142
:10B370004B4079490B43138002E0491B1960F0D020
:10B380007B060ED42823009A74495343E31869338B
:10B39000FF331B789B00C3181A880A4070490A4380
:10B3A0001A80002D21D02823009A5343E3181A0055
:10B3B000733275E792008218168868493140684EEA
:10B3C000314311802A78910041180D8801005031D5
:10B3D0000988D200521812186D045DD55C495218C4
:10B3E00012889205950D002AACD128230099594363
:10B3F000621816008536FF363068083E4019B06086
:10B4000030684019306010008130FF30006800283B
:10B4100003D0FC32D26F954246D2009A20005343AB
:10B42000E3186933FF33197804F0C5F980231F420C
:10B4300000D15BE6019B20684A49C21813884A4E36
:10B440000B4033439BB213802823009A0296534348
:10B45000E31801932B331B78022B01D1FB053AD45F
:10B4600028210300019F50337F181E883A78009BE3
:10B47000D2004B439219364E821892191288E31863
:10B480001D6C9205920D954215D800221A64200079
:10B49000397804F09DF929E62C4952181288920552
:10B4A000950D002AA1D082E76931FF31206861182B
:10B4B00002F0CEFABAE7AD1A1D64E8D0DD6BAD1824
:10B4C000DD635D6CAA185A64009B0133594361180F
:10B4D00002F0BEFA0AE6019B060028331978019BA8
:10B4E000CD001A6C40239C463B4003936346503684
:10B4F0001F4200D1A3E03388154EB4468444634410
:10B500005B5B00269B059B0D934200D2D61A282236
:10B51000009D6A438025A218ED0116643D40002E6F
:10B5200026D1200004F054F9002D00D1A3E0019BA6
:10B53000226828331B7809499B00D21813880B40D6
:10B540000A490B43138096E08F0F000006040000A9
:10B55000020400008FBFFFFF808000008F8FFFFF7D
:10B56000C08000000F8FFFFF0080FFFF80C0000041
:10B57000002D07D0890041180D88794A2A40794D5D
:10B580002A430A802825009A554365192F004C3715
:10B590003A78012A6FD1EA6BAE6CD1186A6CE96314
:10B5A000D2186A64AA6B96421BD3B61AAE64019B8A
:10B5B000019D29331E78283593B2002E34D1060020
:10B5C000503636882D786644ED00AD19002A12D128
:10B5D0002A88654E32402A802E88029A324316000D
:10B5E00010E0002E02D11A003E70E0E70023320086
:10B5F0003B70AB64DBE73E2A0ED8012756083A4081
:10B60000B618B602B6B22E802822009D6A43A21850
:10B61000128E02F008FA2EE01F2756093A405742D0
:10B620005741F61BB602D8E7012EEDD10200503289
:10B6300012882D786244ED00AA181380E4E74B4B82
:10B6400036889C4684446644765B039BB605B60DFB
:10B65000964200D8931B2822009D6A438025A21899
:10B66000ED0113643D40002B10D1200004F0B0F830
:10B67000002D00D15BE7019B226828331B789B00DB
:10B68000D1180B883A4A1A403023ADE5002D07D176
:10B69000890041180A88324B1340324A13430B8009
:10B6A0002823009A5343E3181F004C373A78012AA5
:10B6B000E1D1DA6B9D6C91195A6CD96392195A6475
:10B6C0009A6B95421BD3AD1A9D64019B019D293352
:10B6D0001E78283593B2002E32D1060050363688B7
:10B6E0002D786644ED00AD19002A12D12A881E4E2D
:10B6F00032402A802E88029A3243160010E0002D34
:10B7000002D132003D70E0E700229A643A702A00CC
:10B71000DBE73E2A0CD8012756083A40B618B60295
:10B72000B6B22E802822009D6A43A218528E70E77E
:10B730001F2756093A4057425741F61BB602DAE72F
:10B74000012EEFD10200503212882D786244ED00B4
:10B75000AA181380E6E7200004F05EF873E4C04600
:10B760008F8FFFFF80C00000FF83FFFF06040000F3
:10B77000BF8FFFFF70B505000720084049B228249D
:10B7800000291DDA411C6143273C69184C700A618D
:10B790004A780870CB70002A00D0C881022B01D1F2
:10B7A00000230B71AA24A4002B5D0220012B06D0DC
:10B7B00001232B55286801F0F9FE0020285570BDA3
:10B7C0004443210000262C1969316A34FF31FF34CB
:10B7D00069182670DBE770B504000720084049B2FD
:10B7E0002823002913DA411C5943273B61184B7069
:10B7F000AA250870AD00635D0220012B06D001234D
:10B800006355206802F006F80020605570BD434380
:10B810001900E218002369316A32FF31FF326118E2
:10B820001370E5E770B50724214021344C43051916
:10B830002E007D36FF3632602A008132FF321360DF
:10B840002B0000268533FF3369351E60FF351B3B17
:10B850001E70297021006931FF314118006802F023
:10B86000F7F8300070BD07230B40282159434018DA
:10B870008530FF300068704770B5282607242140C6
:10B8800034004C4304192500E26301224C35236443
:10B890002A700025A364230065642933A4191A7053
:10B8A0002170891871434118006802F0D1F828000E
:10B8B00070BD70B504000725636801200D409D42EE
:10B8C00016D84AB22823002A13DA291859436118D6
:10B8D00048700D700123AA258B70AD00625D0220B7
:10B8E0009A4205D06355206802F02AF8002060557E
:10B8F00070BD4B431900E218002369316A32FF31F1
:10B90000FF3261181370E4E770B504000F2362681A
:10B9100001200B4093421AD80630084049B2282330
:10B92000002915DA411C5943273B61184B7000254B
:10B93000AA2608708D70B600A35D0220012B06D0E8
:10B940000123A355206802F019F82800A55570BD01
:10B9500043431900E218002369316A32FF31FF3294
:10B9600061181370E3E710B50C0021060CD5072110
:10B970002140282401316143401899B2002A08D19E
:10B980000273C180002010BD282161436931FF315D
:10B99000F2E7012283600273F4E703680200BA2031
:10B9A000012110B58000B82411500020A4001055CA
:10B9B00054331A8811430222198019880A431A80C5
:10B9C00010BD7047F0B5040085B0002802D10120F9
:10B9D00005B0F0BD0368002B42D123681B0700D5DA
:10B9E00002E123685B0700D52DE12368DB062AD539
:10B9F0006369012B05D9053303D0BB49BB48FCF76C
:10BA000097FFA3691F2B03D9B949B848FCF790FFEA
:10BA100062690423B74D012A00D0A5E1696B0227B2
:10BA20000B436B636B6B1A436A63FDF7C5FF06003C
:10BA30006B6B3B4200D190E1F8216A6BA3698A43AA
:10BA4000DB0013436B63236A022B03D9AA49A7487F
:10BA5000FCF76EFF236A002B00D0A0E10020B7E7BF
:10BA6000DB0604D13A21A148FF31FCF761FF2368CE
:10BA7000DB0722D56368012B06D9052B04D04021B2
:10BA80009A48FF31FCF754FF0C219A4D6A680A402E
:10BA9000042A0BD06B680B40082B41D1C0226B6885
:10BAA0005202134080225202934239D12B689B03E9
:10BAB00003D56368002B00D189E723689B078CD5E9
:10BAC000E368012B04D974218848FF31FCF730FF6B
:10BAD00023691F2B04D9BA2184484900FCF728FFA9
:10BAE0000C22844D6B6813420BD06B681340082BFB
:10BAF00055D1C0226B685202134080221202934239
:10BB00004DD12B689B0703D5E368012B00D05EE77E
:10BB1000F8212A6823698A43DB0013432B605CE722
:10BB20006368012B13D180232A685B0213432B60C7
:10BB3000FDF742FF80270600BF022B683B42BCD1C5
:10BB4000FDF73AFF801B6428F7D9032040E7002B5C
:10BB500015D12B68694A802713402B602B68684AEF
:10BB6000BF0213402B60FDF727FF06002B683B4206
:10BB7000A3D0FDF721FF801B6428F7D9E5E7052B4B
:10BB800005D180232A68DB0213432B60CBE72B68A7
:10BB90005A4A13402B602B68594A1340C7E7E268A2
:10BBA0000123002A0FD02A68022713432B60FDF7D8
:10BBB00003FF06002B683B42AAD1FDF7FDFE801B68
:10BBC0000228F7D9C1E72A6802279A432A60FDF7BD
:10BBD000F3FE06002B683B4200D1FEE6FDF7ECFECB
:10BBE000801B0228F6D9B0E7E369012B04D9DA21DA
:10BBF0003E484900FCF79CFEE26901233D4D002AC6
:10BC000010D06A6A022713436B62FDF7D5FE060067
:10BC10006B6A3B4200D0E4E6FDF7CEFE801B0228B3
:10BC2000F6D992E76A6A02279A436A62FDF7C4FE70
:10BC300006006B6A3B4200D1D3E6FDF7BDFE801BD8
:10BC40000228F6D981E7A368012B06D9052B04D079
:10BC5000F02126484900FCF76BFE80220021254D8B
:10BC60005205EB690091134208D1EB691343EB6174
:10BC7000EB6913400393039B012300938027214E1C
:10BC80007F0033683B4206D0A368012B13D12A6A98
:10BC900013432B6243E033683B433360FDF78CFE74
:10BCA000019033683B42EFD1FDF786FE019BC01A3D
:10BCB0006428F6D949E70122002B27D12B6A0227F5
:10BCC00093432B622B6A033293432B62FDF774FE7E
:10BCD00006002B6A3B4229D0FDF76EFE0A4B801B03
:10BCE0009842F6D931E7C04626020000AB080108A9
:10BCF00027020000001002409A020000FFFFFEFF32
:10BD0000FFFFFBFF0070004088130000052B16D1D9
:10BD1000296A013B0B432B622B6A1A432A62FDF707
:10BD20004BFE022706002B6A3B420FD0009B012BE3
:10BD300000D05AE6EB69674A1340EB6155E62B6A7F
:10BD4000934304222B622B6A9343A2E7FDF734FE50
:10BD5000614B801B9842E6D9F7E6FDF72DFE801B6C
:10BD6000022800D864E6F0E6053203D16A6B9A43F4
:10BD70006A6361E66A6B0227134301226B636B6B94
:10BD800093436B63FDF718FE06006B6B3B4200D1DB
:10BD900059E6FDF711FE801B0228F6D9D5E60C20E6
:10BDA0004E4A516815000140082975D04C4E022BAF
:10BDB00060D14C4A636A9B184B4A134203D04B49EB
:10BDC0004B48FCF7B5FDA36A4A4A19004A481A4095
:10BDD0000140034214D080204003814210D08020D3
:10BDE000800381420CD0C02189038A4208D0E0221E
:10BDF0009203934204D0A9213D488900FCF798FDA5
:10BE0000E36A0F2B03D93D493948FCF791FD2B68B4
:10BE100080271E402E60FDF7CFFD0600BF042B6873
:10BE20003B4221D10F22EB6A80269343E26AB6049B
:10BE30001343EB62616AA36A6A680B4330490A40A4
:10BE400013436B6080232A685B0413432B60FDF768
:10BE5000B3FD04002B68334200D0FFE5FDF7ACFDD5
:10BE6000001B0228F6D970E6FDF7A6FD801B02280C
:10BE7000D5D96AE613681E401660FDF79DFD802641
:10BE80000400B6042B68334200D1E7E5FDF794FDCA
:10BE9000001B0228F6D958E61800012B00D197E5BF
:10BEA000C0215368656A49020120D26A1940A9423B
:10BEB00000D08DE50F210A40E16A8A4200D087E573
:10BEC000F02080030340A06A1B1A581E8341D8B299
:10BED0007EE5C046FFFFFFEF881300000010024020
:10BEE000FFFFFFFE0080FFFFFF7FFFFFA3020000B8
:10BEF000AB080108FFFFFBFFFFFFF3FFA5020000F7
:10BF0000FF7FC2FF30B589B010221049684604ACEB
:10BF100003F0ECFD10220E49200003F0E7FD0C2297
:10BF20000C494B681A40082A0DD1CA6A0F2168468D
:10BF30009B0C0B400A40C55CA15C0748FCF714F958
:10BF4000684309B030BD0448FBE7C046E308010878
:10BF5000F40801080010024000127A00F7B504004E
:10BF60000E00002801D10120FEBD03685B0703D14C
:10BF700057495848FCF7DCFC012E03D9564955486F
:10BF8000FCF7D6FC0122554D2B681340B3421DD35C
:10BF900023689A0723D42368DB0749D401232A683E
:10BFA0001A40B24273D823684D4D5B0776D4FFF731
:10BFB000A9FF6B684B4A1B061B0FD35CD8404A4B4A
:10BFC00018600020FCF7E2FC0020CDE72B689343CB
:10BFD00033432B602B681340B342C4D1D8E7404FA2
:10BFE0005B0704D5E0237A68DB0013437B60A3681A
:10BFF00080221900914314D02022190091439029E6
:10C000000FD0402219009143A0290AD01022190014
:10C010009143C02905D0F02B03D034492D48FCF7BB
:10C0200087FCF0227B689343A26813437B60B2E7EE
:10C030006368022B03D92E492648FCF779FC284F68
:10C0400062683B68012A1AD19B0300D48BE7032165
:10C050007B688B4313437B60FDF7AEFC01900C23A0
:10C060007A681A4063689B009A4297D0FDF7A4FC57
:10C07000019BC01A1F4B9842F1D9032074E7022A92
:10C0800002D19B01E3D46EE79B07E0D46BE72A68FB
:10C090009A432A602A681A4285D064E7E368164A00
:10C0A00013420ED0A021154AC9001A408A4208D076
:10C0B000C022D200934204D07D390648FF39FCF7F4
:10C0C00037FC6B680E4A1340E26813436B606EE7FF
:10C0D00016030000AB08010817030000002002400F
:10C0E00000100240610501085C04002036030000D6
:10C0F0003D03000088130000FFFBFFFFFFFDFFFF73
:10C10000FFF8FFFF044B054A5B685B055B0FD35CE0
:10C11000034A1068D84070470010024071050108BA
:10C120005C04002070B504000D00002803D1104904
:10C130001048FCF7FDFB002D03D10F490D48FCF71B
:10C14000F7FB0723032123600C4B5A680A40626007
:10C150005A68ED310A40A260E0225B68D2001340C9
:10C160000122E360064B1B6813402B6070BDC04684
:10C1700015050000AB08010816050000001002407C
:10C1800000200240F0B5574B0268050085B09A4286
:10C1900003D96E215448FCF7CBFB2B68DB0332D567
:10C1A0006B68524A134203D074214F48FCF7C0FB1E
:10C1B000802200214E4C5205E3690091134208D1C0
:10C1C000E3691343E361E36913400393039B012392
:10C1D00000938027474E7F0033683B424CD0226A51
:10C1E000C02311009B0019401A4257D1236A3F4ACD
:10C1F00013406A6813432362009B012B03D1E36958
:10C200003D4A1340E3612B68DB070DD5AB68032B78
:10C2100003D9BB213448FCF78BFB0321344A136B51
:10C220008B43A9680B4313632B689B060ED5102321
:10C23000EA689A4303D0DF212B48FCF779FB1021F1
:10C240002B4A136B8B43E9680B4313632B68002065
:10C250009B0321D580232A699A43824203D0EA2195
:10C260002148FCF765FB8021214A0020136B8B439A
:10C2700029690B4313630FE033683B433360FDF7D9
:10C280009BFB019033683B42A9D1FDF795FB019BD5
:10C29000C01A6428F6D9032005B0F0BD6A681340BF
:10C2A0008B42A3D08023226A206A5B02034323626D
:10C2B000236A0E4911481140034023622162D307CB
:10C2C00000D493E7FDF778FB02270600236A3B4280
:10C2D00000D08BE7FDF770FB094B801B9842F5D926
:10C2E000D9E7C0462100030005090108FFFCFFFF54
:10C2F0000010024000700040FFFFFFEFFFFFFEFF55
:10C3000088130000704700000368F0B50400586807
:10C310009A68012591090F0085B02F40294209D163
:10C320002A4207D086092E4204D0E36C20009847A9
:10C3300005B0F0BD0125960704D5C6092E4201D0EF
:10C34000236DF3E7012556093143120A2A4029409B
:10C350001143EDD041092942EAD0002F0FD021002E
:10C360005D310978032950D00421256E29432166C7
:10C3700000210091D96800919968009100990121EC
:10C380000E420BD0256E29432166002140250291E3
:10C39000996802911968A94319600299002A08D086
:10C3A0000822216E0A432266002203929A680392B1
:10C3B000039A226E002ABBD0E0215A688A435A6051
:10C3C0002200DF395D3211700231084225D05A68EF
:10C3D000A06D8A435A60002809D0124B4363FDF7D1
:10C3E00051FE002803D04023226E13432366606D64
:10C3F00000289DD00B4B4363FDF744FE002897D0E7
:10C400004023226E1343236692E700220192DA68EA
:10C4100001929B680193019B8AE72000FFF772FF5E
:10C4200086E7C04629C40008406A0023020010B510
:10C430000832D387C387FFF765FF10BD70B5036867
:10C44000204C0500A34219D01F4A934216D01F4A20
:10C45000934213D01E4A934210D01E4A93420DD0ED
:10C460001D4A93420AD01D4A934207D01C4A934268
:10C4700004D0D0211B48FF31FCF75AFA2B000120D1
:10C480003D331A78824217D102221A702B68DA687B
:10C490000243DA60A34205D00B4A934202D00E4A0F
:10C4A00093420AD107219A6800200A40062A03D045
:10C4B000012219680A431A6070BD1A681043186097
:10C4C0000020F9E7002C014000040040001000406B
:10C4D00000140040002000400040014000440140A2
:10C4E0000048014040090108704770477047704795
:10C4F0000222036810B51969040011420ED0D968F0
:10C5000011420BD0053A1A61043202779B699B07EE
:10C5100000D179E0FFF7E9FF0023237704222368A5
:10C520001969114210D0D96811420DD0093A1A6127
:10C53000073222779A69C0239B0020001A4269D0F3
:10C54000FFF7D3FF002323770822236819691142DC
:10C550000ED0D96811420BD0113A1A610D322277F0
:10C56000DB6920009B075BD0FFF7BFFF0023237729
:10C57000102223681969114210D0D96811420DD0D8
:10C58000213A1A6119322277DA69C0239B00200010
:10C590001A424BD0FFF7A9FF00232377012223681B
:10C5A0001969114207D0D968114204D0033A20001A
:10C5B0001A61FCF7B1F9802223681969114208D089
:10C5C000D968114205D0023AFF3A20001A6100F002
:10C5D00052FB402223681969114207D0D9681142E1
:10C5E00004D0813A20001A61FFF781FF20222368DE
:10C5F0001969114207D0D968114204D0413A20008C
:10C600001A6100F037FB10BDFFF76EFF2000FFF747
:10C610006DFF81E7FFF768FF2000FFF767FF91E7F5
:10C62000FFF762FF2000FFF761FF9FE7FFF75CFF66
:10C630002000FFF75BFFAFE71C4A10B5036890428C
:10C6400002D01B4CA04208D17024A3434C68234362
:10C6500090420ED0164CA0420BD0164CA04208D0EF
:10C66000154CA04205D0154CA04202D0144CA0425B
:10C6700003D1144C2340CC6823438024A3434C694A
:10C68000234303608B68C3620B688362904208D0C7
:10C69000094B984205D0094B984202D0084B98426A
:10C6A00001D10B6903630123436110BD002C0140DC
:10C6B00000040040002000400040014000440140D0
:10C6C00000480140FFFCFFFF70B504000120002C72
:10C6D00066D02368334A934219D0334A934216D026
:10C6E000324A934213D0324A934210D0314A934295
:10C6F0000DD0314A93420AD0304A934207D0304A93
:10C70000934204D014212F48FF31FCF711F9A3689C
:10C710001022190091430BD0402219009143202987
:10C7200006D0402B04D08A2126484900FCF700F9A6
:10C730002369254A134208D080229200934204D0F4
:10C7400016212048FF31FCF7F3F88023A2699A43B1
:10C7500004D08B211B484900FCF7EAF825003D3541
:10C760002B78DAB2002B05D123003C3320001A705D
:10C77000FCF714FA02232B702068211DFFF75CFFE1
:10C78000220001230020463213704534083A13700A
:10C7900053709370D37013715371937123702B7016
:10C7A00070BDC046002C0140000400400010004055
:10C7B00000140040002000400040014000440140BF
:10C7C0000048014040090108FFFEFFFF30B58468C2
:10C7D000034D0A431B022C4013432343836030BDA7
:10C7E000FF00FFFFF8B5060002233C363278050053
:10C7F0000C001800012A44D02F0001223D3732706E
:10C800003B70A94A0B689918A84A114208D03022F7
:10C81000934305D0402B03D0A549A648FCF788F8E0
:10C820002B68A5499A680A409A602268602A00D15C
:10C83000FDE066D8402A00D174E123D8202A03D035
:10C8400019D810218A4318D19C4A934209D09C4A96
:10C85000934206D09B4A934203D09B499548FCF7EC
:10C8600067F8702229688B68934322681343072274
:10C8700013438B6001E0302AE6D0012300203B7097
:10C880003070F8BD502AF8D18C4A934209D08C4AB6
:10C89000934206D08B4A934203D08C498548FCF7DB
:10C8A00047F8802263681202934209D002221900DD
:10C8B000914305D00A2B03D085497E48FCF738F810
:10C8C000E3680F2B03D983497A48FCF731F82B68CA
:10C8D0000125186A6168E2681C6A1201AC431C6297
:10C8E0009C69EF35AC4322430A24A04301439A617B
:10C8F000196270219A688A43110057220A439A608C
:10C90000BBE7802149018A4239D0802189018A42CE
:10C910005AD0702AB1D1694A934206D0684A9342EC
:10C9200003D06D496348FCF703F86C4BA2681A42C8
:10C9300003D06B495F48FBF7FBFF8022636812025C
:10C94000934209D002221900914305D00A2B03D04B
:10C9500064495848FBF7ECFFE3680F2B03D96249A1
:10C960005448FBF7E5FFE3686268A1682868FFF7B1
:10C970002DFF77232A6891680B4393607DE74F4A28
:10C98000934200D179E74E4A934200D175E7574A66
:10C99000934200D171E7564A934200D16DE7554A60
:10C9A000934200D169E7474A934200D165E7524A72
:10C9B000934200D161E7514A934200D15DE750496B
:10C9C0003C48FBF7B5FF58E73C4A934206D03C4A47
:10C9D000934203D04B493748FBF7AAFF3F4BA2686D
:10C9E0001A4203D048493348FBF7A2FF802263680C
:10C9F0001202934209D002221900914305D00A2B5A
:10CA000003D042492B48FBF793FFE3680F2B03D970
:10CA10003F492848FBF78CFFE3686268A1682868F3
:10CA2000FFF7D4FE80232A68DB019168A4E7234A3C
:10CA3000934209D0224A934206D0224A934203D01D
:10CA400034491C48FBF774FF80226368120293424A
:10CA500009D002221900914305D00A2B03D02E4998
:10CA60001448FBF765FFE3680F2B03D92B491148E6
:10CA7000FBF75EFF6268E16810242B68284D186A96
:10CA80000903A04318629C69186A2C402143A02422
:10CA900099617021A043120102431A629A688A4385
:10CAA000110067222AE7C04600F0FFFFFFEFFFFFFB
:10CAB00027140000400901088800FFFF002C0140F6
:10CAC000000400400040014099140000661400007A
:10CAD000691400006A1400003A140000FFCFFFFF41
:10CAE0003D1400003E1400003F1400000010004000
:10CAF0000014004000200040004401400048014074
:10CB000033140000521400005514000056140000A5
:10CB10005714000076140000791400007A14000005
:10CB2000FF0FFFFF1D4A934209D01D4A934206D0D2
:10CB30001C4A934203D01C491C48FBF7F9FE802293
:10CB400063681202934209D002221900914305D072
:10CB50000A2B03D016491548FBF7EAFEE3680F2BB2
:10CB600003D914491148FBF7E3FE2B680125186A25
:10CB70006168E2681C6A1201AC431C629C69EF3573
:10CB8000AC4322430A24A04301439A6119627021F5
:10CB90009A688A4311004722B0E6C046002C014043
:10CBA00000040040004001408614000040090108D4
:10CBB000891400008A140000F8B50368254E0500AA
:10CBC0000C00B34210D0244A93420DD0234A934222
:10CBD0000AD0234A934207D0224A934204D0EC2140
:10CBE0002148C900FBF7A4FE302322689A4305D0F0
:10CBF000402A03D01D491C48FBF79AFE8023626837
:10CC00009A4303D01A491848FBF792FE29000223E1
:10CC10003C310A781800012A1BD0280070273D30CB
:10CC200003702B685D689A68BD4327683D435D606B
:10CC3000B34205D0084DAB4202D00A4DAB4204D1FD
:10CC400080256468AA4322439A6001230370002070
:10CC50000870F8BD002C01400004004000100040A6
:10CC600000140040004001407809010861070000FD
:10CC70006207000070477047836F10B5212B0DD1FC
:10CC8000010052310A880368002A08D180211A68FD
:10CC90008A431A60402219680A431A6010BDC26CA8
:10CCA000147801321C85C2640B88013B9BB20B8057
:10CCB000F4E7836F10B5212B0DD1010052310A88A2
:10CCC0000368002A08D180211A688A431A6040222A
:10CCD00019680A431A6010BDC46C22880234D20558
:10CCE000D20D1A85C4640B88013B9BB20B80F2E71E
:10CCF00070B5846F03000220202C31D10138002947
:10CD00002ED0002A2CD080209D684001854206D17B
:10CD10001869002803D11F3C2000214220D11C00AB
:10CD2000743426780220012E1AD0D96419005031AB
:10CD30000A804A8000211A1DD167212280219A672A
:10CD40004901084A8D4203D11969002900D1064AD8
:10CD500000209A6620701A68802311680B431360C4
:10CD600070BDC04679CC0008B3CC0008704770474E
:10CD7000C021036810B51A6804008A431A609868D5
:10CD8000403902000A4008421AD09A68E06E8A438D
:10CD90009A6000280AD00D4B4363FDF773F9002811
:10CDA00002D0E06E436B9847002010BD2300523341
:10CDB0001880A06620232000A367FFF7D8FFF3E7C1
:10CDC000230052331A80A266F4E7C046D1CD000892
:10CDD000406A00220300523310B51A802023836773
:10CDE000FFF7C5FF10BD7047C26F10B503680400A0
:10CDF000222A34D102005C329B8C12881340426D8F
:10CE000013700200436D5A32013343651388013BAE
:10CE10009BB21380138899B2002B1BD10368124870
:10CE20001A6802401A609A682330FF3082439A6081
:10CE30002022E267226E616682420CD110211A68BC
:10CE400020008A431A60230058331988FFF7CBFF6C
:10CE50000023236610BD2000FFF788FFF8E70822B3
:10CE600099690A439A61F5E7DFFEFFFFC26F10B5CB
:10CE700003680400222A32D121005C31988C098891
:10CE8000626D01401180210002325A3162650A88C8
:10CE9000013A92B20A800A8891B2002A1AD11A681D
:10CEA000114802401A609A682330FF3082439A602A
:10CEB0002022E267226E616682420CD110211A683C
:10CEC00020008A431A60230058331988FFF78BFF2C
:10CED0000023236610BD2000FFF748FFF8E7082273
:10CEE00099690A439A61F5E7DFFEFFFF6A4B4268E2
:10CEF00070B504009A4203D968496948FBF718FDE8
:10CF00008022A3685205934206D0664A134203D09A
:10CF100065496348FBF70CFD644DE3682B4203D081
:10CF200063495F48FBF704FD624B226A1A4203D053
:10CF300061495B48FBF7FCFC2369604A134207D058
:10CF4000C022D200934203D05D495548FBF7F0FC64
:10CF500063690C221900914301D1002B03D1594977
:10CF60004F48FBF7E5FC584BA2691A4203D05749DA
:10CF70004B48FBF7DDFC564BE2691A4203D055499A
:10CF80004748FBF7D5FC2669A168226831436669EA
:10CF90001068E3693143504E19433040014311603A
:10CFA00051680D40E1680D435560A169256A90689C
:10CFB00029434A4D28400143916049498A4215D18D
:10CFC0000321484A126B0A40013A022A57D84649BF
:10CFD000885C8022120293422DD108280FD8FBF7DB
:10CFE000A5F8520E100E270E0E0E11003F498A4270
:10CFF00045D03F498A4242D03E498A423FD0012033
:10D0000046E03D4B5800636861685B08C018FBF759
:10D01000ABF83A4982B2103A03048A42EFD80F22A1
:10D020001B03904380B222685B0F1843D0602EE050
:10D03000FEF768FF29E00828E1D8FBF76DF816E055
:10D040001EE01BE0E0E005008020000263686168EC
:10D050005B081818FBF788F880B20200274B103ADB
:10D060009A42CCD82368D86011E0FFF74BF800282B
:10D070000DD0EBE7FEF746FFF9E71F48E6E7802211
:10D0800012029342F1D1FFF73DF8031EBAD10020FE
:10D0900000236366A36670BD808D5B00E10B00001A
:10D0A000B3090108FFEFFFFFE20B0000FFCFFFFF16
:10D0B000E30B0000FFF7FFFFE40B0000FFFBFFFFA7
:10D0C000E60B0000E70B0000FFFCFFFFE80B000091
:10D0D000FF7FFFFFE90B0000F369FFEFFFF4FFFFA5
:10D0E0000038014000100240EC09010800440040F3
:10D0F00000480040004C004000127A00EFFF0000A2
:10D10000436A70B50400FF2B03D955495548FBF716
:10D110000FFC636ADB070DD5534DA36A2B4203D086
:10D1200052495048FBF704FC2268A16A53682B401F
:10D130000B435360636A9B070ED54D4DE36A2B4248
:10D1400004D0C72147480901FBF7F2FB2268E16AD6
:10D1500053682B400B435360636A5B070DD5454D05
:10D16000236B2B4203D044493E48FBF7E1FB226886
:10D17000216B53682B400B435360636A1B070DD52B
:10D180003E4D636B2B4203D03D493648FBF7D0FB45
:10D190002268616B53682B400B435360636ADB0664
:10D1A0000DD5384DA36B2B4203D037492D48FBF7E3
:10D1B000BFFB2268A16B93682B400B439360636AAB
:10D1C0009B060DD5314DE36B2B4203D030492548EA
:10D1D000FBF7AEFB2268E16B93682B400B43936037
:10D1E000636A5B062AD523682A4A934206D02A4AF4
:10D1F000934203D029491B48FBF79AFB284D236C27
:10D200002B4203D027491748FBF792FB2168226C79
:10D210004B682B4013434B6080235B039A420DD134
:10D22000214D636C2B4203D020490E48FBF780FB55
:10D230002268616C53682B400B435360636A1B0682
:10D240000DD51B4DA36C2B4203D01A490548FBF7A3
:10D250006FFB2268A16C53682B400B43536070BD79
:10D26000640C0000B3090108FFFFFDFF690C00001A
:10D27000FFFFFEFFFFFFFBFF770C0000FF7FFFFFBC
:10D280007E0C0000FFEFFFFF850C0000FFDFFFFFBB
:10D290008C0C00000038014000440040930C00005A
:10D2A000FFFFEFFF940C0000FFFF9FFF990C0000B1
:10D2B000FFFFF7FFA10C0000F7B5802704000D0069
:10D2C000160001933F012268D3692B405B1B594232
:10D2D0004B41B34201D000201CE0089B0133F3D046
:10D2E000FCF76AFB019B089AC01A2368904201D898
:10D2F000002A10D11A6813490A401A609A68A331AB
:10D30000FF318A439A602023A367E3670023032049
:10D3100074342370FEBD04211A680A42D3D0DA693E
:10D320003A42D0D01F621A6806490A401A609A68C9
:10D33000A331FF318A439A602023221DA367E3674C
:10D34000D367E3E75FFEFFFF73B500260400031D0C
:10D35000DE67FCF731FB236805001B681B0716D44A
:10D3600023681B685B070AD580210F4B00220093BE
:10D3700020002B00C903FFF79FFF002812D12023B4
:10D380000020A367E3672066743420700BE08021DF
:10D39000054B32000093890303002000FFF78CFF48
:10D3A0000028DDD0032076BDFFFFFF0110B5041E6D
:10D3B00001D1012010BD81690368264A00293BD0B4
:10D3C00093420DD0244A93420AD0244A934207D074
:10D3D000234A934204D02C21FF312248FBF7A8FABC
:10D3E000A36F002B05D12200743220001370FBF7CD
:10D3F0005BFC242301212268A367136820008B4370
:10D400001360FFF773FD0128D3D0636A002B02D0AD
:10D410002000FFF775FE236813495A6820000A4070
:10D4200008215A609A688A439A60012219680A435F
:10D430001A60FFF789FFBDE79342D1D0064A9342B5
:10D44000CED0064A9342CBD0054A9342C8D0982109
:10D450004900C2E700380140004400400048004055
:10D46000004C0040B3090108FFF7FFFF03005833E9
:10D4700010B5416580241A805A8000228168426676
:10D4800064010433A14224D10269002A1FD1194A40
:10D490001A800022031DDA6722230268C36794689A
:10D4A000213B2343802493606401134BA14203D1A9
:10D4B0000169002900D1114B436603000020743339
:10D4C0001870902311685B000B43136010BDFF229E
:10D4D000DEE7002904D10269002AF8D07F22D7E7CD
:10D4E00080246405A142D3D10269002AF6D03F22EC
:10D4F000CEE7C046FF010000E9CD00086DCE000870
:10D5000070B5C46F0223202C26D1013B002923D003
:10D51000002A21D0802384685B019C4206D10369E4
:10D52000002B03D101242300214215D104007434BF
:10D5300025780223012D0FD0013B237000230366C1
:10D5400003685C68240204D580241D68E4042C432D
:10D550001C60FFF78BFF0300180070BD821D0300E5
:10D560000020D087014A0233DA87704780BFFFFF6F
:10D570000230C38F024A1340C38700207047C04661
:10D580007F40000084B010B504000492059301228E
:10D59000831C0020DA87D887A31D5034D8870391D5
:10D5A000208010BC08BC04B018470000F7B50D7807
:10D5B0000300AD0045192C888A4AC8781440032816
:10D5C0004BD8FAF7B3FD0248464380229200144339
:10D5D000854A864F1443A4B22C800E78BC46B50011
:10D5E0005D192C883C4034431E001443A4B22C80A7
:10D5F0000D7B0C785036002D00D076E0E400E41866
:10D60000CD8801944C786D086D00002C2AD03688A6
:10D61000019C34198026F600A41925800C78A400FA
:10D620001C1925886D0604D525882F40704D2F4381
:10D6300027800C78C978A4001B196E4C01290ED0E4
:10D6400019880C40202161400A439CE0C022D2008E
:10D6500014430020BCE78022F9E70120B8E71988CD
:10D660002140F1E73788019C3C19634FE41925807C
:10D670000C783588E400614EE418A41964190D692A
:10D68000002D1DD125885E4E3540802625802588B9
:10D690003602354325800C78A4001C1925886D04BA
:10D6A00005D5664625883540564E35432580097890
:10D6B000554C89005B1819880C40C0218901C2E7CC
:10D6C0003E2D06D801276E083D407619B602B5B248
:10D6D000E0E71F276E093D406F427D41761BB50292
:10D6E0004A4E2E43B6B22680D5E7A4001C192588E1
:10D6F0003D40474F3D43802725800C783588E40026
:10D70000FF00E418E41964190D896D086D00258087
:10D710000C783588E400384EE418A4198026641982
:10D720004D89F6016D086D0025800C784F78A400B6
:10D73000304D1C19002F29D12788374205D0674664
:10D7400026883E402F4F3E4326800C78A4001C19AB
:10D750002688760605D5674626883E40244F3E43F8
:10D7600026800E78284CB6009E1937882740C024A2
:10D77000A4017C401443A4B23480097889005B186A
:10D7800019880D402A4392B21A80FEBD278837427D
:10D7900005D0674626883E401A4F3E4326800C78C7
:10D7A000A4001C192688760605D5674626883E40C3
:10D7B0000F4F3E4326800C78CE78A4001C19012E12
:10D7C0000CD026882E40202575401543ADB225800B
:10D7D00009780D4C89005B18198841E72688354087
:10D7E000F3E7C0468F89FFFF8080FFFF8F8FFFFF29
:10D7F000C0800000BF8FFFFF04040000060400008B
:10D80000FF83FFFF80C000008FBFFFFF0080FFFF8E
:10D8100080810000F0B50B780D7B9B004C78404A6E
:10D82000C318002D21D1002C10D01C88640605D50A
:10D830001C883C4D2C403C4D2C431C800B783B49B4
:10D840009B00C01803880B401A433FE01C88640407
:10D8500005D51C88334D2C40354D2C431C800B784E
:10D8600034499B00C0180388EDE780262D4D2F4FCB
:10D87000F601002C2ED11C88344204D01C882C4E7A
:10D880002C4034431C800B782B4C9B00C3181E8803
:10D89000760604D51E882E402643B6B21E800B782D
:10D8A0009B00C3181E8835402C43A4B21C800C7802
:10D8B000204DA400041923882B4013439BB22380DE
:10D8C0000B789B00C01803881F403A4392B2028035
:10D8D0000020F0BD1C88344205D01E88174C2E4015
:10D8E0002643B6B21E800B789B00C3181E887406B0
:10D8F00004D51E880C4C2E4026431E800B780F4CFE
:10D900009B00C3181E8835402C43A4B21C800B78A2
:10D910009B00C3181C8827401743BFB21F809EE797
:10D920008080FFFF8F8FFFFFC0800000BF8FFFFF51
:10D9300080C000008FBFFFFFC080FFFF80C0FFFFDF
:10D940000B780B4A9B00C0184B78002B09D003883A
:10D950000849194010234B4013439BB20380002019
:10D96000704703880449194080235B01F3E7C046F0
:10D970008080FFFFBF8FFFFF8FBFFFFF0B7B10B5C6
:10D98000002B1CD10B784A789B00C318002A18D0B2
:10D990001A88520605D51A88134C2240134C22438C
:10D9A0001A80CB78012B0AD00B78114A9B00C01843
:10D9B00003881A40202353400E4A1343038000205B
:10D9C00010BD1A88520405D51A88074C22400A4C0B
:10D9D00022431A800B78094A9B00C01803881A401A
:10D9E000C0239B01E7E7C0468F8FFFFFC080000088
:10D9F000BF8FFFFF8080000080C000008FBFFFFF4F
:10DA0000002902D180234C300380002070478022FF
:10DA100058300388120213430380002070470630F9
:10DA2000C08F80B2704730B580240133E4001219F2
:10DA30005B0880185B00CB18401A4418994200D14B
:10DA400030BD4A780D7812022A4322800231F4E771
:10DA5000F7B50C0049780500227B012900D09DE133
:10DA60002769A669BE4200D93E006169002A1DD11E
:10DA7000B6B23300E2882800FFF7D5FF2B00BC4A7E
:10DA8000503319882378AA18DB0052189B181E807F
:10DA90002078B84A80002D182B881A403023534034
:10DAA000B54A13439BB200202B80FEBD2078E3785B
:10DAB0008200AA18022B00D02BE1236A10889F4213
:10DAC00000D315E1AD4F9B1B3840AD4F384310805C
:10DAD000207823628300EB181F88B3B26278019329
