:020000040800F2
:1000000000400020892F00081D2A00081F2A000830
:1000100000000000000000000000000000000000E0
:10002000000000000000000000000000212A00087D
:100030000000000000000000232A0008252A000814
:10004000D92F000800000000D92F0008D92F000880
:10005000D92F0008D92F0008D92F0008D92F000860
:1000600000000000D92F0008D92F0008D92F000860
:10007000D92F0008D92F0008D92F00080000000050
:10008000D92F0008D92F0008D92F0008D92F000830
:10009000D92F0008D92F0008D92F0008D92F000820
:1000A000D92F0008D92F0008D92F0008D92F000810
:1000B000D92F0008D92F0008000000002D2A0008C1
:1000C00010B5064C2378002B07D1054B002B02D02E
:1000D000044800E000BF0123237010BD3801002058
:1000E000000000004C3F0008044B10B5002B03D06B
:1000F0000349044800E000BF10BDC04600000000F6
:100100003C0100204C3F000802B4714649084900F8
:10011000095C49008E4402BC7047C04603B4714676
:10012000490840004900095A49008E4403BC704701
:10013000002243088B4274D303098B425FD3030A26
:100140008B4244D3030B8B4228D3030C8B420DD339
:10015000FF22090212BA030C8B4202D312120902C7
:1001600065D0030B8B4219D300E0090AC30B8B4205
:1001700001D3CB03C01A5241830B8B4201D38B03B3
:10018000C01A5241430B8B4201D34B03C01A524158
:10019000030B8B4201D30B03C01A5241C30A8B429B
:1001A00001D3CB02C01A5241830A8B4201D38B0286
:1001B000C01A5241430A8B4201D34B02C01A52412A
:1001C000030A8B4201D30B02C01A5241CDD2C3099C
:1001D0008B4201D3CB01C01A524183098B4201D318
:1001E0008B01C01A524143098B4201D34B01C01A03
:1001F000524103098B4201D30B01C01A5241C3087B
:100200008B4201D3CB00C01A524183088B4201D3E9
:100210008B00C01A524143088B4201D34B00C01AD5
:100220005241411A00D20146524110467047FFE741
:1002300001B5002000F006F802BDC0460029F7D045
:1002400076E770477047C046D0400B1CD1409C46B3
:10025000203AD340184352426346934018437047B4
:1002600070470000012210B50024064B52421A616B
:100270001C61DA60DC609A629C62FFF7F1FF20008B
:1002800010BDC0460010024010B5040001F0CCFBC8
:10029000FA218900FFF74CFF00F078F801200022D6
:1002A0002100404200F038F8002010BD1023064A1B
:1002B00010B5116800200B431360FFF7E5FF02F053
:1002C00095FB002010BDC04600200240024A136882
:1002D000013313607047C0467C060020014B18684C
:1002E0007047C0467C06002037B50190FFF7F6FF47
:1002F000019C0500631C5A1E9341E418FFF7EEFFB2
:10030000401BA042FAD337BD0221024A13688B4337
:100310001360704710E000E070B58901002814DA1E
:100320000F23C0B20340083B114A9B089B009B1857
:10033000032210409040FC3215001140854081405E
:10034000DC69AC432143D96170BD03258308284093
:10035000A840FC352E00074A9B009B18C02286400F
:100360002940814092009C58B44321439950EBE7C7
:1003700000ED00E000E100E01F2318401E3B834039
:10038000014A13607047C04600E100E0094A431E7D
:10039000012093420DD8C021074A08485360036AE0
:1003A00009061B021B0A0B4303620020072390600F
:1003B00013607047FFFFFF0010E000E000ED00E079
:1003C00010210C4B30B5D8680022084205D00A48ED
:1003D0000232C4692243C2610A000420D968014282
:1003E00005D00121044C0243E5692943E161DA604B
:1003F00030BDC0460020024080060020064B002091
:100400001A69120606D5054A5A60054A5A601869E3
:100410000006C00F7047C046002002402301674518
:10042000AB89EFCD8023034A002011690B43136190
:100430007047C0460020024070B50400FFF74EFF31
:1004400001250600104B1A00D96829420FD120213E
:10045000D868084200D0D9601023D068184002D173
:10046000D3685B0708D5FFF7ABFF012004E0611CF0
:10047000EAD0002C01D1032070BDFFF72FFF801BB5
:100480008442DFD2F7E7C04600200240F0B585B0D5
:10049000029203931B4B01911A7E04000220012A51
:1004A0002ED0012218481A76FFF7C6FF002824D163
:1004B0002600012C02D0022C00D004260024029831
:1004C00003992201FFF7C0FE002201270D4B0F4DBB
:1004D000DA612B69019A3B432B6163009B1880B260
:1004E00018800948FFF7A8FF2B69BB432B61002840
:1004F00003D1E419E3B29E42E1D80022014B1A76FF
:1005000005B0F0BD8006002050C30000002002406E
:100510000022064BDA61064B043219690A431A615C
:10052000402219690A431A617047C04680060020BC
:10053000002002400022064BDA61064B02321969A4
:100540000A431A614022586119690A431A617047C7
:100550008006002000200240F8B5214E0500337EC1
:100560000F000220012B0CD0012333762B681D488D
:10057000012B12D1FFF760FF002803D001200023D8
:100580003376F8BDFFF7C4FF1648FFF755FF042187
:10059000154A13698B431361F1E7FFF74DFF0028FC
:1005A000ECD101235B423B606C680130AB686A6848
:1005B000DB029B189C42E2D22000FFF7BBFF0948F8
:1005C000FFF73AFF0221084A13698B4313610028A1
:1005D00001D03C60D3E780231B01E418E6E7C04666
:1005E0008006002050C3000000200240F0B50B68D8
:1005F00087B0029300230191029ADA4001D107B03B
:10060000F0BD01229A4003920399029A0A40009297
:1006100000D18CE0019A1021526816008E43022E00
:100620000ED107251D40AD000139A940DC08A4000A
:100630000419276A8F4301990969A9400F4327626A
:1006400003245F00BC40E4430568013E2540AC46FE
:1006500003251540BD4061460D430560012E0FD8AE
:1006600001998668CD682640BD403543856046685F
:10067000039915098E4301210D409D403543456086
:10068000C56801992C408D688021BD4049052C43E7
:10069000C4600A424BD00121264C0326A5691E40A6
:1006A0000D43A561A4699D080C400594059C0F2489
:1006B0002149AD00B6006D18B4409021AF68C9055E
:1006C000A743002488420CD01C490134884208D03A
:1006D0001B490134884204D01A490334884200D1AE
:1006E000023CB44000993C430E00AC60164CCD4334
:1006F00027683E43D10301D43E002E402660676840
:10070000009E3E43910301D43E002E406660A768E0
:10071000009E3E43D10201D43E002E40A660E66812
:10072000009F3743920201D42E403700E760013327
:1007300062E7C0460010024000000140000400488B
:1007400000080048000C004800040140006908400F
:10075000411E8841C0B2704770B504000120002CD2
:100760002BD0EA25FF35635DDBB2002B05D1F422E7
:100770005200A354200002F003FA03230022635521
:1007800023001100012660682833824216D100211F
:10079000230008000933FF338A4218D100200121C9
:1007A00023689A1C9E1D5033D187D087F08718800C
:1007B0000B4BD387631DD877615570BD1A705E707F
:1007C000D970D9601961596101321C33DDE71970A4
:1007D0005870D870D8601861586101311C33DBE75C
:1007E00000BFFFFF80210368090258331A880020E8
:1007F0000A431A807047F42110B54900425C022375
:10080000012A09D0012203689C1CE2879A1D00235B
:10081000D3870322E2874354180010BDF42210B599
:100820005200835C04000220012B09D00123A35451
:10083000002906D1236880314C3319800020A05450
:1008400010BD631DD977F9E7F0B585B0019048B2C6
:100850001C24002825DA7F250D406C432834019D97
:10086000C00F2C197F25E370F423294021700199D2
:100870006070E2605B00C95C0220012900D1F6E0F3
:1008800001210198924DC154E078019B1B68032817
:1008900015D821788F4E89005918FFF735FC064C82
:1008A0000B484C430934FF34D9E7088806408A488E
:1008B000064303E0088806402E43B6B20E80267831
:1008C000864FB000181801882E433940314389B251
:1008D0000180A07A2178BC46002867D11E0060788C
:1008E00050360390A08802900398002827D03288C1
:1008F000C900591889188022D2008918012202984B
:1009000090430880227892009A181188490604D5ED
:1009100011880F4072490F43178022787149920065
:100920009B181A88114020224A40154398E00888F5
:1009300006406D48BCE7088806406C48B8E7378831
:10094000C900C91901276A48591809180298B843FB
:10095000088021783088C9000918664818180918D5
:100960003E2A1DD95009D20601D1013880B2624A0F
:10097000800210430880227892009A181188490456
:1009800005D56046118801405C48014311802278FA
:100990005B4992009B181A881140C0229201C3E75C
:1009A00050083A4200D001308002E3E7890059182C
:1009B0000A8854484B4F02405348024318000A80AB
:1009C000227850300188D200521880219A18C9002C
:1009D00052180121E6888E43168022780088D200C2
:1009E0009A181218424812182089884310808020D3
:1009F000227861789200C0019A18002939D11188B3
:100A0000014205D06046118801403C4801431180F5
:100A100022783E4892009A181188490605D5664604
:100A200011883140014389B21180664622789200D4
:100A30009A1811883140084380B210802178304ADA
:100A40008900591808881040C022920142402A4368
:100A500092B20A80227892009B181A8817403D4370
:100A6000ADB21D80F4230020019A5B00D05405B084
:100A7000F0BD16882649064205D0664610883040EB
:100A8000084380B21080227892009A18108840069D
:100A900005D5664610883040114E304310806646BA
:100AA000227892009A1810883040014389B2118050
:100AB000227892009A1811880F402F43BFB21780F6
:100AC00022780F4992009B181A880A402DE7C046E9
:100AD0008080FFFF0F090000808200000F0F0000E0
:100AE000C0800000BF8FFFFF808600008084000070
:100AF00004040000060400000080FFFF80C0000026
:100B00008FBFFFFF0F0E000080810000C080FFFF3D
:100B100080C0FFFFF0B57F242140633C27004F4396
:100B2000C7193D000026FC35FF37EA612B626E6273
:100B3000BE727972AA6993422FD99B1A2B624C43D9
:100B40000419FF34E57C0368002D29D11D005035C0
:100B50002E88657AED00AD19394C1C192D193E2AE5
:100B600059D95409A4B2D20601D1013CA4B2354AE4
:100B7000A40214432C801C2251434018FF30427AB7
:100B8000314992009B181A8800201140C02292011E
:100B90004A402E490A431A80F0BD2E621A00CEE761
:100BA000A57A002D2AD11D0050352E88657A284C53
:100BB000ED00AD191C192D193E2A17D95409A4B2FC
:100BC000D60601D1013CA4B21E4EA40234432C80AF
:100BD0001C264E438619FF36B47A002C23D11C0004
:100BE000757A50342488ED002D19B5E75408A4B265
:100BF000D60701D50134A4B2A402E8E7012DE7D15C
:100C00001D00647A50352D88E4001C196419104DBC
:100C100064192280DCE75408A4B2D20701D501345C
:100C2000A4B2A402A6E7012CA5D11C00503425884B
:100C3000747AE4001C196419014D641922809AE742
:100C4000060400000080FFFF8FBFFFFF80800000D0
:100C500002040000F42310B55B00C45C0200022013
:100C6000012C22D00138D054CD3B48B2FF3B0028A4
:100C70001CDA7F240C40634328330124D3189C7072
:100C80007E342140C40F19705C701468134B002926
:100C900010D12088124901401248484003439BB2BA
:100CA0002380F42300205B00D05410BD4B43093354
:100CB000FF33E2E789006118002808DA08880A4C47
:100CC00004401020604003439BB20B80E9E7088892
:100CD000064C044080204001F4E7C0468080FFFFBE
:100CE000BFBFFFFF10100000BF8FFFFF8FBFFFFFD0
:100CF0004AB270B51C230400002A34DA7F20084071
:100D0000434328330020E318D20F5A70F42298701E
:100D10007F30014019705200A15C7D38012921D03B
:100D20000121A1541A7820685D789200194982182F
:100D3000002D1CD015886D0605D51588164E35403A
:100D4000164E354315801A7892008218138814487D
:100D50001840302343400B439BB21380F423002000
:100D60005B00E05470BD4B430933FF33CAE715887D
:100D70006D0405D51588084E35400A4E354315805B
:100D80001A7892008218138807481840C0239B01E4
:100D9000E0E7C0468080FFFF0F0F0000C08000002A
:100DA000BF8FFFFF80C000008FBFFFFF30B58024E2
:100DB000E40000198218080001335B08002B00D101
:100DC00030BD4478057824022C43451AAC520230D9
:100DD000013BF3E7F8B57F250D401C210400080016
:100DE0006843201882630200002601272932C3636A
:100DF0000664013A57701570426B93422ED99B1AC4
:100E0000C363694361180B000F0032331B7896B23D
:100E10002837002B25D18A8D3300896B2068FFF796
:100E2000C5FF23681A00503211883A78D2009B1807
:100E3000514A5B189B181E801C214D4365192835AB
:100E40002B7822689B00D21813884C490020194047
:100E500030234B404A490B431380F8BDC6631A0048
:100E6000CFE73B7820689F00C7193F882931097870
:100E70007F0645D5002937D1010050310988DB00B4
:100E80005B18404941185B183E2A25D9510989B29F
:100E9000D20601D1013989B23B4A89021143198036
:100EA0001C236B43E3181A8E1C276F43E71933008A
:100EB000B96BFFF77BFF3B0029331B782268002BBF
:100EC0004DD128373B7831499B00D3181A880A4006
:100ED0002F490A431A80AFE7510889B2D20701D5DA
:100EE000013189B28902DAE70129D9D101005031F3
:100EF0000988DB00C3185B1822495B181A80CFE70A
:100F0000002920D1010050310988DB005B181A4903
:100F100041185B183E2A0ED9510989B2D20601D177
:100F2000013989B2184A8902114319801C236B4385
:100F3000E318DA8DB8E7510889B2D20701D501313B
:100F400089B28902F1E70129F0D101005031098805
:100F5000DB00C3185B1808495B181A80E6E7012B11
:100F600000D069E728373B7808499B00D3181A88D6
:100F70000A400849ADE7C04602040000BF8FFFFFEA
:100F800080800000060400000080FFFF0F0F0000BB
:100F9000C080000080C0000070B58025ED004019C1
:100FA0005C08821826000800002E07D16400091989
:100FB0001219DB0701D513880B7070BD451AAD5AA5
:100FC000013E05702D0A45700230EDE7F0B503686B
:100FD00085B00633DB8F04001BB2002B00DA61E022
:100FE00023680633DA8F52050AD5DA8F8749200045
:100FF0000A40DA8701F008FE00212000FFF70EFC0E
:1010000023689A1DD18F490403D5D18F80480140B0
:10101000D187D18F890403D5D18F7E480140D187F4
:10102000D28FD2040FD504210233DA8F20008A43F5
:10103000DA87794ADA8701F00BFE236877490633AD
:10104000DA8F0A40DA8723689A1DD18F090512D5F5
:10105000D18F734802330140D1870821D88F0143D3
:10106000D9870421D88F0143D987D38FDB0402D4D9
:10107000200001F0DBFD23680633DA8F920506D5E8
:10108000DA8F684920000A40DA8701F0B6FD23684C
:101090000633DA8FD20503D5DA8F63490A40DA873F
:1010A00005B0F0BD02AB9F1D00233B80206803AA62
:1010B000831DDB8F9BB213801BB2002B00DB8FE7FD
:1010C0000F2316881E4000D0BEE01021138819405F
:1010D0000388002926D1554A13400380030050336A
:1010E0001A88230028331B78DB00C018504B801867
:1010F000C0180388A26B9B059B0D2364D318A363C0
:10110000200001F06FFD631DDA7F002ACED0E06B76
:101110000028CBD18022D97F114322684C32118024
:10112000D877C3E79BB23B803B881B0520D50300E3
:1011300050331A8884235B00E35C2100DB00C31872
:101140009B183C4AED319B1822001B8809329B05F5
:101150009B0DFF329361FF319288FFF71DFF2268DC
:101160003549138820000B40138001F025FD9DE7D1
:101170003B881BB2002B99DA03882F4A25001340C5
:101180000380030050331A8884235B00E35C093535
:10119000DB00C3189B18274AFF359B181B889B054B
:1011A0009B0DAB6107D0AA882969FFF7F5FE2B6973
:1011B000AA699B182B610021200001F007FD22681D
:1011C0001C49130050331B88E8685118C9183E2881
:1011D00013D943099BB2C00601D1013B9BB217480A
:1011E0009B0203430B80138815491940C0239B01C0
:1011F0004B4014490B43138058E743089BB2C00788
:1012000001D501339BB29B02ECE7C046FFFBFFFF19
:10121000FFBFFFFFFFDFFFFF00BDFFFFFFEFFFFF8F
:10122000FFF7FFFFFFFDFFFFFFFEFFFF0F8FFFFF39
:1012300002040000060400008F0F00000080FFFF82
:101240008FBFFFFF80800000B3000193C3181A888E
:1012500092B23A803A8812B2002A3DDA1A8874496A
:101260000A401C21714361181A800B000200FF33F1
:10127000DD7C50325B7A002D73D11288DB00C318FD
:101280009B186C4A9B181D88AD05AD0D07D00B004F
:10129000FC31FE33DA89C9692B00FFF77DFE1C2182
:1012A0000800704320180200FC32536A5B19536235
:1012B000D3699C46AC446346D361136A002B03D0C8
:1012C0009269954200D37CE00B007343E318FF332F
:1012D000597A200001F07AFC80223B88134200D129
:1012E000E4E62068B300C3181A8853490A401C2159
:1012F000714361181A800B00020032331D7850329E
:101300000A3B002D64D11B781288DB00C3189B18A0
:101310004A4A9B181B889B059B0D0B6403D08A8D42
:10132000896BFFF743FD22681300503318881C2394
:101330005E43A619310028310B78DB00D3183F4AF1
:101340001B189B181A88B36B9205920D32649A1879
:10135000F36BB26309782000002B66D101F042FCE8
:10136000A4E69D0045192D88DB001288C3189B1840
:101370006D041CD5314A9B181D88AD05AD0D07D0F5
:101380000B00FE331A8AFC312B00C969FFF704FEFB
:101390001C237343E318FF335A7A236892009A1888
:1013A000138827490B4027490B43138077E7214ACD
:1013B0009B181D88AD05AD0DEAD00B00FE335A8A8F
:1013C000E1E7FF30417A62462000FFF7A3FB83E7A5
:1013D0001B789D0045192D88DB001288C3189B18C7
:1013E0006D0619D5154A9B181B889B059B0D0B6430
:1013F00003D0CA8D896BFFF7D9FC1C237343E31814
:1014000028331A78236892009A1813880C490B40E5
:101410000D490B43138086E7064A9B181B889B05E2
:101420009B0D0B64E9D00A8EE4E7FFF7D3FC3DE6A1
:101430008F0F0000060400000F8FFFFF0204000062
:101440000F0F0000C080000080C0000030B51C24D9
:101450000D060AD57F252940614328314118002A0D
:1014600007D18A728B80002030BD61430931FF3182
:10147000F4E70122CB801B0C8A720B81F3E700009A
:1014800081220C4B19680A431A605A680A490A40BB
:101490005A601A6809490A401A601A6808490A40DD
:1014A0001A6000225A60DA621A639A60054A064B93
:1014B0001A607047001002400CF8FFF0FFFFF6FEC4
:1014C000FFFFFBFF00127A0064000020F0B5036804
:1014D00085B00500DB072FD42B689B0700D586E07D
:1014E0002B681B0700D5C6E02B685B0700D5E9E039
:1014F0002B68DB061AD56A69BA4C0423012A00D08E
:1015000055E1616B02260B436363636B1A436263AD
:10151000FEF7E4FE0700636B334200D140E1F8219F
:10152000626BAB698A43DB0013436363296A00295A
:1015300000D063E1002018E00C21AA4C62680A4048
:10154000042A0BD063680B40082B10D1C0226368BB
:101550005202134080225202934208D123689B0317
:10156000BAD56B68002BB7D1012005B0F0BD6B6810
:10157000012B13D1802322685B0213432360FEF703
:10158000ADFE80260700B60223683342A4D1FEF7E1
:10159000A5FEC01B6428F7D90320E6E7002B16D16F
:1015A0002368914A80261340236023688F4AB6023D
:1015B00013402360FEF792FE07002368334200D1F8
:1015C0008AE7FEF78BFEC01B6428F6D9E4E7052BFB
:1015D00005D180232268DB0213432360CAE7236816
:1015E000814A134023602368804A1340C6E70C22D7
:1015F0007C4C636813420BD063681340082B15D1F1
:10160000C0226368520213408022120293420DD11D
:1016100023689B0702D5EB68012BA5D1F82122682E
:101620002B698A43DB001343236059E7EA680123EF
:10163000002A0FD02268022613432360FEF74EFED5
:10164000070023683342E9D1FEF748FEC01B022899
:10165000F7D9A1E7226802269A432260FEF73EFEF0
:1016600007002368334200D13AE7FEF737FEC01B7C
:101670000228F6D990E7EA6901235A4C002A10D0D3
:10168000626A022613436362FEF728FE0700636A5C
:10169000334200D028E7FEF721FEC01B0228F6D90E
:1016A0007AE7626A02269A436262FEF717FE070033
:1016B000636A334200D117E7FEF710FEC01B022811
:1016C000F6D969E780220021464C5205E369009172
:1016D000134208D1E3691343E361E36913400393C1
:1016E000039B012300938027414E7F0033683B42D8
:1016F00006D0AB68012B13D1226A1343236230E07A
:1017000033683B433360FEF7E9FD019033683B42A9
:10171000EFD1FEF7E3FD019BC01A6428F6D93BE741
:101720000122002B14D1236A022793432362236AE8
:10173000033293432362FEF7D1FD0600236A3B4246
:1017400025D0FEF7CBFD2B4B801B9842F6D923E723
:10175000052B0BD1216A013B0B432362236A1A43F9
:101760002262FEF7BBFD022706000DE0236A9343C9
:1017700004222362236A9343C0E7FEF7AFFD1D4BAB
:10178000801B984200D907E7236A3B42F5D0009BB3
:10179000012B00D0ACE6E369174A1340E361A7E6EA
:1017A000FEF79CFDC01B022800D8B4E6F4E6053223
:1017B00003D1626B9A436263B1E6626B0226134304
:1017C00001226363636B93436363FEF787FD070046
:1017D000636B334200D1A9E6FEF780FDC01B0228EF
:1017E000F6D9D9E600100240FFFFFEFFFFFFFBFF26
:1017F0000070004088130000FFFFFFEF0C22264C12
:10180000012063681340082B00D1AEE62368234A09
:101810001340236002292FD1FEF760FD80260700C8
:10182000B6042368334221D10F22E36A9343EA6A64
:101830001343E362696AAB6A62680B431849802507
:101840000A4013436360802322685B0413432360D0
:10185000FEF744FD0600AD0423682B4200D069E684
:10186000FEF73CFD801B0228F6D995E6FEF736FD13
:10187000C01B0228D5D98FE6FEF730FD8025060073
:10188000AD0423682B4200D154E6FEF727FD801BF0
:101890000228F6D980E6C04600100240FFFFFFFE96
:1018A000FF7FC2FF30B5124D89B010222900684673
:1018B00001F0BEFB290004AC10311022200001F021
:1018C000B7FB0C220B494B681A40082A0DD1CA6A93
:1018D0000F2168469B0C0B400A40C55CA15C064882
:1018E000FEF726FC684309B030BD0348FBE7C0465D
:1018F000643F00080010024000127A00F7B5012290
:10190000434C060023680F0013408B421CD33268FF
:10191000930723D4D30729D4012322681A4097427E
:1019200067D333683B4C5B076AD4FFF7BBFF636840
:10193000394A1B061B0FD35CD840384B1860002077
:10194000FEF7A2FC002008E0236893430B432360CA
:10195000236813409942DAD00120FEBDF0202D49C2
:101960004B688343B06803434B60D3E7294D7268EB
:101970002B68012A1AD19B03EED503216B688B4398
:1019800013436B60FEF7AAFC73680190012B15D11D
:101990000C226B681340042BBED0FEF79FFC019B0A
:1019A000C01A1F4B9842F3D90320D6E7022A02D16E
:1019B0009B01E2D4D0E79B07DFD4CDE7022B12D006
:1019C0000C226B681342A7D0FEF788FC019BC01A5B
:1019D000134B9842F4D9E7E7FEF780FC019BC01A4D
:1019E0000F4B9842E0D80C226B681340082BF3D1C0
:1019F00092E722689A43226022681A42ACD190E7AB
:101A00006368084A1340F268134363608DE7C04679
:101A10000020024000100240B73F00086400002090
:101A200088130000FFF8FFFF014B18687047C0469D
:101A300064000020F0B5036885B00500DB0328D5FD
:101A4000802200213B4C5205E3690091134208D1EA
:101A5000E3691343E361E36913400393039B0123A9
:101A600000938027344E7F0033683B422FD0C02242
:101A7000236A92001340314E3BD1236A1E406B68AB
:101A80001E43009B2662012B03D1E3692C4A1340BD
:101A9000E3612A68D30706D5032026490B6B8343ED
:101AA000A86803430B63930606D5102021490B6BEE
:101AB0008343E86803430B630020930317D5802119
:101AC0001C4A136B8B4329690B4313630FE0336884
:101AD0003B433360FEF702FC019033683B42C6D1C2
:101AE000FEF7FCFB019BC01A6428F6D9032005B061
:101AF000F0BD69680A409342BFD08023226A206A01
:101B000011005B0203432362236A0E483140034005
:101B100023622162D307B0D5FEF7E0FB0700022263
:101B2000236A1342A9D1FEF7D9FB074BC01B984289
:101B3000F5D9DBE70010024000700040FFFCFFFF1A
:101B4000FFFFFFEFFFFFFEFF881300001B23038052
:101B5000004870473C00002000207047002070477C
:101B60000A230380004870475800002010B5002465
:101B7000062907D887239B00034CC3582100186807
:101B800000F03AFE200010BD540100208623F7B576
:101B900080229B00C458D200A35C0500042B6AD1AC
:101BA0008123DB00E1584C4E002953D12378002BD0
:101BB00014D1A359012B3FD181230020DB008022C7
:101BC000A051E0500323D200A354444AA054444AF5
:101BD000A054444AA054444AA354FEBD212B10D122
:101BE000A359052B28D1A378E2781B0212049B1875
:101BF00062789B18227912069B188222D200A35089
:101C0000DAE7412B18D1A359052B15D1A078E37839
:101C100000021B04C0186378C01823791B06C01883
:101C20008223DB00E050F53BFF3BEB58DB68984735
:101C30000028C1D00220D0E781220023D200A35186
:101C4000A3506A466946137028000133D38000F020
:101C5000C9FDB1E70129AFD9244BA259C918822384
:101C6000DB00E3588902C91887239B00C358200072
:101C70001B699847DCE70020072BAED11C4B184F9F
:101C8000E0541C4B174E197D04230B4013498C461E
:101C90001549834207D00623A3546246A054E05559
:101CA000A055635499E70820A0546246A354E35515
:101CB000A3556054280000F0A0FA87239B00EB583E
:101CC0009B689847BFF34F8F0B4A0C4BDA60BFF30A
:101CD0004F8FC046FDE7C0460C0400000204000020
:101CE000030400000404000005040000FEFF3F00A0
:101CF000070400003C0000200400FA0500ED00E0AD
:101D000070B5862681220024B6008359D2009C50EB
:101D10000A4A80219C500222C9005A5408490500F1
:101D20005C5408495A5487239B00C3589B689847C2
:101D3000A85901F067F8AC51200070BD0C040000F8
:101D4000010400000504000010B504008320C00059
:101D500001F054F886239B00E050002801D10220B6
:101D600010BD0023114A12498350043A8150083AA9
:101D70008350104A802183500F4AC90083540222A5
:101D800042540E4943540E4943540E4943540E499C
:101D900043540E4942540E4A835487239B00E35810
:101DA0005B6898470028DAD1DAE7C04614040000DF
:101DB000008000080C04000007040000010400007B
:101DC00002040000030400000404000005040000F5
:101DD00006040000F8B5862360220E789B000500FB
:101DE000C458164000D177E1202E26D14878062825
:101DF00000D991E1FEF792F9410107003C00A500EE
:101E0000FF001A011F018023CA88DB00002A1AD0B4
:101E1000E35C022B01D0052B11D181234988DB0023
:101E2000E150C04B8021E2500323C9006354BE49F6
:101E300028006354210000F012FD002616E028005F
:101E400000F0D0FCF9E7E25C052A01D0022AF6D1C5
:101E50000121B64A0026A1540622E254B44BE654AE
:101E6000B44BE654B44BE654AF4BE2543000F8BDEB
:101E70008020CA88C000002A58D08123205CDB0063
:101E8000022801D009284CD180264888F600E0506D
:101E9000A44BA74FE250A74B9C46A74B002816D156
:101EA0000221032A00D80731A15562460026E655D3
:101EB000A654E6549C4B0322E15421232100637075
:101EC00020332670A370280000F0B3FCCEE7012871
:101ED0001AD00921A1550026E6556746E655E65475
:101EE000914BE154954B2100C0188223DB00E3584D
:101EF0008002C01887239B00EB585B699847894B89
:101F00000100E25892B2DEE70F226046A255002699
:101F1000E6552654E654844BE254280000F062FC57
:101F2000A4E700267F4AA650E650F6E70223804940
:101F3000235462547F4962547F4962547A496354FE
:101F40007BE78023DB007E49E25C6618032A07D02A
:101F5000062A33D006223100280000F06AFC6CE724
:101F6000704A7349A2588C46724F7348002A1CD09D
:101F70000422E25400236354E35523546A4BE25491
:101F800087220333E15892000833002908D12078D2
:101F9000412805D1AA5897693200E058B847D9E7D7
:101FA000AA58012197693200F7E70521E1546346F9
:101FB000E254E25522545C4BE154CBE75B4AA25C0D
:101FC000012A09D10721E154594BE2540023594A0F
:101FD000A354594AA354EEE7002ABBD15949097DBD
:101FE0004907B7D50221E154514BE254514BE25419
:101FF000514BE254DFE78026F600A35D4A494C4886
:102000004C4F4D4D4E4A0A2B0AD1083BA355002692
:10201000A6542654E655665563544B4BE65425E7C3
:102020000A23A3550E26A6540026F2E78023DB00E0
:10203000E118012290E780220121D200A05C0B0070
:10204000092803D89B239B00C340DB4300260B4297
:1020500000D00BE70223A354394AA654344AA654AD
:10206000344AA654344AA6542F4AA354364BE65455
:102070000233E6502B4BE650F8E680220120D200D6
:10208000A65C0300092E03D89B239B00F340DB438F
:10209000034011D10220A054294AA354244AA35436
:1020A000244AA354244AA3541F4AA054264AA354A2
:1020B0001218A3501B4AA3501022224B5E7D1640DB
:1020C00006D0280000F099F8280000F091F8B4E656
:1020D0004888FEF709F9C9E64B780A2B13D00B2B79
:1020E00015D0062B18D14B881B0A212B08D1CB8881
:1020F0001A1C092B00D90922124992B212312BE77E
:102100003200310028E7114B0122E118DBE68E781E
:10211000002E01D10D4BAEE7280000F063FB022634
:10212000A4E6C0460C0400000504000007040000FB
:10213000020400000304000004040000FEFF3F004E
:10214000010400003C00002006040000140400000C
:102150000020704700207047002070470020704723
:10216000002902D087239B00C15000207047000047
:1021700010B500280AD1104800F06CFF0F4800F09D
:1021800069FF0A2000F080FF022010BD85239B001C
:10219000C458002C01D00024C450002902D084234C
:1021A0009B00C150FE2301215B00C154027000F06E
:1021B00063FD0020E9E7C046843F00088C3F00082B
:1021C00010B5002904D085239B00C150002010BD0C
:1021D000054800F03FFF054800F03CFF0A2000F0F2
:1021E00053FF0220F3E7C046843F0008A23F0008E7
:1021F00010B500F06DFD002010BD852310B5040062
:102200009B00C35801795B689847200000F070FD7F
:10221000002010BD85239B00C35810B5002B01D1B1
:10222000022010BD1B6898470028F9D1F9E78523E3
:1022300010B59B00C3585B689847002010BD000094
:1022400082239B0070B5C5180400280000F0B6FA80
:10225000FA2301225B00E250124BE25A163BE25095
:102260001033E15CEA3BFF3B0B40012B0FD0002B0E
:1022700007D0022B10D07F232000994300F05AFD95
:1022800003E02900200000F0F1F8002070BD2900D3
:10229000200000F009FAF8E72900200000F020FAF9
:1022A000F3E7C0460E02000070B5040015000029D7
:1022B00027D1FA235B00C358032B0FD10530FF3021
:1022C0008368C26893420BD99B1A83609A4200D9F3
:1022D0001A0092B22900200000F0D1FA002070BD4F
:1022E00085239B00E3581B69002B06D0FE22520079
:1022F000A25C032A01D120009847200000F0C7FA11
:10230000ECE785239B00C3589B69002BE6D0FE2297
:102310005200825C032AE1D19847DFE7F8B50D004F
:1023200004001100002D41D1FA235B00C358022B99
:102330000ED1C269066AB24213D9921BC26192B22F
:1023400000F085FA2B002A002900200000F046FD4D
:1023500080239B00E25C012A01D10022E25400208C
:10236000F8BD876931003800FDF768FF0D1E0CD1FC
:10237000BE420AD8FC267600A3599F4205D20A0025
:10238000200000F064FAA551DCE785239B00E358A8
:10239000DB68002B06D0FE225200A25C032A01D18A
:1023A00020009847200000F07EFAD1E785239B00AB
:1023B000C3585B69002BD2D0FE225200825C032AF4
:1023C000CDD129009847CAE7002270B5040011005A
:1023D000402300F09DFC23004025FC335D6100227A
:1023E0002B008021200000F093FCFE2301225B00E3
:1023F0002562E2541C33E358002B06D085239B0052
:10240000E35821795B6820009847002070BD017473
:1024100000207047FE23FE225B00C15CFF32815426
:10242000FA3AFF3AC25400207047FE23FF33C25CE1
:10243000013BC25400207047FE2310B55B00C35C13
:10244000032B06D185239B00C358DB69002B00D0EA
:102450009847002010BD10B50400802100F06AFCF0
:102460000021200000F066FC10BD000073B50400E0
:1024700048780D00092800D98DE0FDF74FFEE000F7
:1024800001018C00F3008C007E000A008C00CF005C
:10249000A1004988080A0138062800D97BE0FDF729
:1024A00033FE04202F7A7A55600084236A469B000D
:1024B000E358207C1B68911D98476B469E1D318810
:1024C000002900D17AE0EA88002A77D00B1C9142DB
:1024D00000D9131C01009AB23380200000F0A9F942
:1024E0006CE08523227C9B00E358002A06D19B6A7E
:1024F0006A46901D984702234370DEE7DB6AF7E7E0
:10250000C9B2052919D8842208009200237CA25858
:10251000FDF7FAFD03090B0D0F115268694618000B
:1025200006319047C9E79268F8E7D268F6E7126982
:10253000F4E75269F2E79269F0E785236A469B0067
:10254000E35806329B6B20009847B6E7237C002BAC
:1025500021D185236A469B00E358901D5B6B984709
:10256000ABE7237C002B16D185236A469B00E358FA
:10257000901D1B6B98470723BEE78B88002B0AD161
:10258000CB88002B07D1FE264D887F3376001D4077
:10259000A35D032B03D12000FFF75DFF0EE0FF23B7
:1025A0005B00E5542900200000F0F8FB200000F05B
:1025B0006EF90223002D00D10123A355002076BD22
:1025C0008978384D29700129E5D8FE235B00E25C4B
:1025D000022A0DD0032ADED1002915D102222000C3
:1025E000E2546160FFF723FE200000F050F9E5E7B8
:1025F0000029F9D0012103226160E2542000FFF795
:1026000009FE0228F0D1C6E761680129ECD0C9B201
:102610002000FFF70CFE29786160EFE7CA88012AE5
:10262000B9D1FE235B00E35C022B03D0032BB2D1B4
:10263000211D52E700232100A36008314DE7FE234E
:102640005B00E35C023B012BA5D80123E3608123FF
:102650009B00E358002B01D00323E36021000222FA
:102660000C313AE74B88012BA8D181229200A3506C
:1026700085239B00E35829009B6820009847B3E717
:10268000FE235B00E35C023B012B00D983E74B8810
:10269000012B00D092E7812300229B00E2501033EF
:1026A000E8E7C04653020020FE2370B55B00C35C20
:1026B00004000D00032B0FD10B79012B0CD88523BF
:1026C0009B00C3589B689847EB88002B02D12000E1
:1026D00000F0DDF8002070BD2000FFF7BCFEF9E738
:1026E00070B50D00040060208A882B78D1B20340B9
:1026F000202B08D1F533FF33E35829009B682000D5
:102700009847002070BD6B78012B21D0002B2FD073
:10271000032BF6D1FA33FF33E35C022B43D0032BB8
:1027200003D02000FFF797FEEBE76B88002B04D166
:102730004B0602D0200000F0FDFA85239B00E358F1
:1027400029009B6820009847200000F0A0F8D8E7F7
:10275000FE235B00E35C022B25D0032BE1D16B88C9
:10276000002BCED14B06EFD0200000F0F3FAE4E7C7
:10277000FE235B00E35C022B15D0032BD1D17F2518
:102780000D402D01130614D514352000651900F0F5
:10279000F1FA002810D001232B600222290020002A
:1027A00000F047F8ADE74B06ABD0200000F0C2FACE
:1027B000A7E70535FF35E8E72860EEE70B780370FB
:1027C0004B784370CA788B7812029B1843804A7901
:1027D0000B7912029B188380CA798B7912029B189D
:1027E000C380704710B50400802100F0A3FA0021D7
:1027F000200000F09FFA10BD002330B5984201D1AF
:1028000030BD2B00C45C5D1C002CFAD1DBB25B0038
:10281000023313800B7003234B70013B0578002DAE
:10282000EED05A1CCD54D2B202330130DBB28C54FC
:10283000F4E71300FA2210B50224520084500A0073
:102840008361C361002100F0B9FA002010BD10B50A
:1028500013000A00002100F0B1FA002010BD13009F
:10286000FA2210B50324520084500200FC32D360D7
:1028700013610A00002100F0B1FA002010BD10B56C
:1028800013000A00002100F0A9FA002010BDFA236D
:1028900004225B0010B5C25000231A00190000F09A
:1028A0008DFA002010BDFA2305225B0010B5C2503E
:1028B00000231A00190000F091FA002010BD30B575
:1028C00097B0302200210AA800F0BBFB10220021A3
:1028D00001A800F0B6FB1422002105A800F0B1FB0E
:1028E00080235B0213938023012402255B030AA843
:1028F00014930A940B941295FEF7E8FD07230193B5
:102900000023210001A8039304930295FEF7F6FF2C
:1029100080239B020593802305A80993FFF78AF87B
:1029200017B030BDB0B588B000AFFDF7BFFCFFF702
:10293000C6FF0C2314220021F81800F082FB80202F
:10294000244BC00359691024014359615A69012578
:10295000024080203A603A685969C00201435961D7
:1029600080215A69890202407A607A685A69902007
:102970000A435A615B69C0050B40BB60BB680C230E
:10298000F918FC607D61FDF731FE90202100C00543
:10299000FDF7DCFE002819D00F4C104A23681340C5
:1029A00080229205934211D1FEF76AFDFDF75AFC91
:1029B000FDF7AAFCBFF34F8FBFF36F8F084B1D606D
:1029C000084B1B68226882F30888984700F0ACF82F
:1029D000FEE7C04600100240008000080000FE2F05
:1029E00000000140048000087047000001200A4BED
:1029F00082B099690143996180219A694905024031
:102A00000092009ADA690A43DA61DB690B400193AC
:102A1000019B02B07047C046001002407047FEE7BD
:102A20007047704710B5FDF751FC10BD10B5024856
:102A3000FEF7CCFA10BDC046C408002070B50E00E9
:102A400015000C00A31B9D4201DC280070BD00E0B6
:102A500000BF20700134F5E770B50E0015000C00C2
:102A6000A31B9D4201DC280070BD207800E000BF60
:102A70000134F5E70A4B10B519680200002901D1AD
:102A8000084919606946186882188A4206D900F018
:102A9000A5FA0C2303600120404210BD1A60FCE738
:102AA00054020020E80C002001204042704780239F
:102AB0009B0100204B607047012070470020704749
:102AC0000121134B13481A680A431A605A680240DE
:102AD0005A601A68104802401A601A680F4802408B
:102AE0001A605A680E4802400F205A60DA6A824320
:102AF000DA621A6B0B4802401A638022186B024399
:102B00001A635A6B8A435A6300229A607047C04620
:102B1000001002400CB8FF08FFFFF6FEFFFFFBFFAE
:102B2000FFFFC0FF6CFEFFFF10B5114C00221149E2
:102B30002000FFF71DFB002801D0FFF755FF0E49CD
:102B40002000FFF73DFB002801D0FFF74DFF0B49A8
:102B50002000FFF705FB002801D0FFF745FF20000C
:102B6000FFF746FB002801D0FFF73EFF10BDC0462F
:102B7000A00600206800002000000020B80000200F
:102B800007B50B4B02689A4211D18020094A000414
:102B9000D1690143D161D3690022034001931F2011
:102BA0001100019BFDF7B8FB1F20FDF7E5FB07BDFA
:102BB000005C0040001002400100872310B59B001C
:102BC000ED31FF31C058FFF73BFB10BD1C234B43D9
:102BD000C318FC33DA69872310B59B00C058FFF790
:102BE00063FB10BD1C234B43C3189A6B872310B59E
:102BF0009B00C058FFF792FB10BD872310B59B00C8
:102C0000C058FFF719FC10BD836870B50400022B93
:102C100001D0FFF7E9FE8725AD0001216059FFF7DC
:102C2000F6FB6059FFF7D0FB70BD0000872310B59D
:102C300004009B00C058FFF7EDFBA369002B04D0F4
:102C40000623024A11690B43136110BD00ED00E039
:102C5000836910B50400002B06D00621054A1369CC
:102C60008B431361FFF72BFE87239B00E058FFF790
:102C7000DCFB10BD00ED00E0872370B505001248B5
:102C80009B00C550114B8824036008234360063B1A
:102C9000836003610023A40028518361C361036240
:102CA000FDF75AFD002801D0FFF79EFE00222859AB
:102CB00011001823FEF7CAFB28595823002280214F
:102CC000FEF7C4FB002070BDC4080020005C00407B
:102CD00088239B00C05810B5FDF784FD022303280C
:102CE00001D8024B1B5C180010BDC046C73F00084E
:102CF00088239B00C05810B5FDF77DFD02230328F3
:102D000001D8024B1B5C180010BDC046C73F00082D
:102D100010B514001A0023008824A4000059FDF700
:102D200093FD0223032801D8014B1B5C180010BD42
:102D3000C73F000888239B00C05810B5FDF78AFFE5
:102D40000223032801D8024B1B5C180010BDC046AB
:102D5000C73F000888239B00C05810B5FDF7C8FF87
:102D60000223032801D8024B1B5C180010BDC0468B
:102D7000C73F000888239B00C35848B21C22002884
:102D800006DA7F2001404A439B182A33187870479F
:102D90004A439B18FF33D87AF9E7000088239B0049
:102DA000C05810B5FDF73AFD0223032801D8024BA5
:102DB0001B5C180010BDC046C73F000810B5882432
:102DC000A4000059FEF706F80223032801D8024B9D
:102DD0001B5C180010BDC046C73F000810B5882412
:102DE000A4000059FDF796FE0223032801D8024BE8
:102DF0001B5C180010BDC046C73F00080048704764
:102E00005802002070470000122301480B807047D1
:102E100084000020042301480B80704798000020A4
:102E200010B5002452008A18914200D110BD030F42
:102E3000092B05D830330B704C7000010231F3E7D9
:102E40003733F8E71A2370B50B800B4B0B4C18681F
:102E50000B4B1B68C01800280BD00A4BA11C082282
:102E60001D68FFF7DDFF2100042212312800FFF763
:102E7000D7FF200070BDC046ACF7FF1F9C000020AC
:102E8000B4F7FF1FB0F7FF1F10B5044C0A00044849
:102E90002100FFF7B1FC200010BDC046E40A00206D
:102EA000E43F000810B5044C0A0004482100FFF775
:102EB000A3FC200010BDC046E40A0020F73F000834
:102EC00010B5044C0A0004482100FFF795FC2000CF
:102ED00010BDC046E40A0020CB3F000810B5044CEA
:102EE0000A0004482100FFF787FC200010BDC046FF
:102EF000E40A0020D63F0008002310B5934201D118
:102F0000080010BDC45CCC540133F7E70023322025
:102F100093705070D37000207047F7B50E00040016
:102F20000D000192019AAB1B9A4201D80020FEBD10
:102F300022680023290002202700FDF7A7FA0028B5
:102F400006D108CD3A6804349A42EBD00220EEE76D
:102F50000120ECE71FB5002302900193694601337D
:102F600001A80393FDF7F8FA431E984180B205B01B
:102F700000BD10B5FDF756FA002010BD10B5FDF7E5
:102F80003DFA002010BD00000D4885460D480E4951
:102F90000E4A002302E0D458C4500433C4188C42B3
:102FA000F9D30B4A0B4C002301E013600432A24218
:102FB000FBD3FFF785FD00F017F8FFF7B3FCFEE742
:102FC000004000200000002038010020DC40000804
:102FD00038010020E80C0020FEE70000014B1868D3
:102FE0007047C046D400002070B500260C4D0D4C33
:102FF000641BA410A64209D1002600F0A7FF0A4DC9
:103000000A4C641BA410A64205D170BDB300EB5856
:1030100098470136EEE7B300EB5898470136F2E7E0
:10302000D4400008D4400008D4400008D84000082C
:10303000002310B59A4200D110BDCC5CC4540133BA
:10304000F8E703008218934200D1704719700133EA
:10305000F9E700000FB40B4B13B51C68002C05D02A
:10306000A369002B02D1200000F064F805AB049A9C
:10307000A1682000019300F079F916BC08BC04B0E7
:103080001847C046D4000020084B70B51C680500E6
:10309000002C05D0A369002B02D1200000F04AF8D3
:1030A0002900A268200000F005FC70BDD4000020BB
:1030B00010B5024900F0B2F810BDC046D53C00087A
:1030C000002310B504000360436083608181436680
:1030D000C281036143618361190008225C30FFF7FC
:1030E000B0FF054B24626362044BA362044BE362AE
:1030F000044B236310BDC046453900086D390008F4
:10310000A5390008D139000870B568254A1E554315
:103110000E002900743100F0A3F8041E08D000212D
:103120002A00016046600C30A0606832FFF789FF1A
:10313000200070BD836913B50400002B28D183647F
:10314000C3640365134B144A1B688262019398425F
:1031500001D101238361200000F020F8606020008D
:1031600000F01CF8A060200000F018F80022E060D9
:1031700004216068FFF7A4FF01220921A068FFF77E
:103180009FFF02221221E068FFF79AFF0123A3614B
:1031900013BDC0463C400008B1300008F8B51E4BD6
:1031A00007001E68B369002B02D13000FFF7C2FF91
:1031B0004836B4687368013B04D53368002B07D0E8
:1031C0003668F6E70C22A55E002D0DD06834F2E7D4
:1031D00004213800FFF798FF30600028F0D10C235D
:1031E00004003B602000F8BD012320005B42E38126
:1031F0000233A38165662560A56065602561656110
:10320000A561082229005C30FFF71BFF6563A563F9
:10321000A564E564E6E7C0463C400008F7B5040055
:103220000700002601914834002C01D13000FEBD7A
:103230006368A5680093009B013B009301D5246857
:10324000F2E7AB89012B08D90E22AB5E013304D023
:1032500029003800019B984706436835EBE70000DA
:10326000032370B5CD1C9D43083506000C2D1ED2DE
:103270000C25A9421DD8300000F0E3FD254A146852
:103280002100002919D1244C2368002B03D13000E0
:1032900000F046FB20602900300000F041FB431C99
:1032A0002CD10C233000336000F0CCFD03E0002D66
:1032B000DFDA0C233360002070BD0B685B1B1AD46F
:1032C0000B2B03D90B60CC18256003E08C420ED188
:1032D00063681360300000F0B5FD200007220B305A
:1032E000231D9043C31AE7D05A42E250E4E74B68EB
:1032F00063600C00EEE70C004968C2E70323C41CBE
:103300009C43A042E0D0211A300000F009FB431C8E
:10331000DAD1C6E77406002078060020936810B55D
:10332000013B9360002B05DA9469A34208DBCBB222
:103330000A2B05D01368581C10601970C8B210BD54
:1033400000F04CFBFBE7F8B506000F001400D518A1
:10335000AC4201D1002007E021783A003000FFF7AD
:10336000DDFF0134431CF3D1F8BD0000F0B59FB080
:1033700006000F0014000593002804D08369002B79
:1033800001D1FFF7D7FE7F4B9F425CD17768BB89A5
:103390001B0762D53B69002B5FD0002306AD6B6134
:1033A00020336B761033AB760294029C2378002B8B
:1033B0005DD1029BE31A04930DD0049B029A39005D
:1033C0003000FFF7C0FF431C00D1CCE06A69049BCA
:1033D000944663446B612378002B00D1C3E0012243
:1033E000002352426A6002A95432521801342B6001
:1033F000EB60AB601370AB6521780522624800F08A
:1034000015FD631C9C46002835D12968CB0604D5E0
:10341000532302AA20309B1818700B0704D553239E
:103420002B2002AA9B18187023782A2B2CD000205E
:103430000A21099B2278303A092A00D86BE000283B
:103440002AD0099328E0514B9F4201D1B7689EE7EB
:103450004F4B9F429BD1F76899E73900300000F04D
:1034600027FB002899D0012040421FB0F0BD252B3A
:103470009FD001349AE7444B2968C01A0123834046
:103480000B432B606446B7E7059B181D1B6805902E
:10349000002B3ADB0993644623782E2B0BD16378FB
:1034A000621C2A2B3FD1059B02341A1D1B68059212
:1034B000002B35DB079321780322364800F0B6FC59
:1034C000002807D0334B2A68C01A40238340134397
:1034D0002B6001342178631C06222F480293297641
:1034E00000F0A4FC002844D02C4B002B2FD12968DD
:1034F000059B0722C90528D59B18934308330593DC
:103500006B69039A9B186B614FE75B42EB60022388
:103510000B432B60BFE74B4301349B18012089E725
:1035200001235B42C6E7002314000A201A006B60E7
:1035300021783039092903D9002BBCD00792BAE78A
:103540004243013452180123F2E70733D5E705ABB4
:1035500000933A00124B2900300000E000BF0390B6
:10356000039B0133CCD1BB895B0600D57BE70B986D
:103570007BE705AB00933A00094B2900300000F0CF
:103580007FF8ECE760400008A04000088040000899
:1035900040400008A6400008AA40000800000000C3
:1035A00047330008F7B5150001938A680B6900904E
:1035B0000C00934200DA130022002B604332127891
:1035C000002A01D001332B6023689B0602D52B68AB
:1035D00002332B60062723681F4027D02300433384
:1035E0001B785A1E93412268920630D4220001991A
:1035F00043320098089EB047431C25D0062320681C
:103600002A68E16803400025042B03D18D1AEB439F
:10361000DB171D40A3682269934201DD9B1AED1858
:103620000027BD4220D1002010E00137E3682A685E
:103630009B1A9F42D2DA2200012319320199009885
:10364000089EB047431CF0D101204042FEBD30200F
:10365000E1184331087021005A1C45310978A2183D
:10366000433202331170C1E7220001231A3201995B
:103670000098089EB047431CE6D00137D1E7000010
:10368000F0B58BB006920A0043320793059004927E
:103690000A7E0C00109B6E2A00D18FE017D8632A97
:1036A0002CD008D8002A00D199E0582A54D02600FE
:1036B0004236327029E0642A01D0692AF7D12168A4
:1036C0001A68080623D5111D1960156825E0732AAC
:1036D00000D188E008D86F2A29D0702AE7D12022AB
:1036E00009680A43226003E0752A20D0782ADED1D7
:1036F00022007821453211706C4A30E00E001A68C1
:103700004236111D196013683370012379E04906B0
:10371000D9D5111D19600023D55E002D03DA2D23A4
:10372000049A6D421370624B0A2703932FE02068BE
:103730001968050603D5081D18600D6805E04006E8
:10374000F9D50D68081D1860ADB2594B08270393D1
:103750006F2A18D00A2716E045310A70544A03929E
:103760001A682168101D18601568080622D5CB0755
:1037700002D52023194321601027002D03D12023D7
:1037800022689A4322602300002243331A70636840
:10379000A360002B5CDB0422216891432160002D93
:1037A00058D1049E002B64D02600039B42361B7820
:1037B00033705EE04806DAD5ADB2D8E709681A681A
:1037C000080605D5111D1960136862691A6006E0C4
:1037D0004906F7D5111D19601368A28A1A800023C3
:1037E000049E236154E01A68111D196016680021B7
:1037F0006268300000F01AFB002801D0801B606076
:10380000636823610023049A137041E02369320046
:1038100006990598079DA847431C43D023680025B7
:103820009B070FD4099BE06898423DDA18003BE003
:1038300022000123193206990598079EB047431CC0
:1038400030D00135E368099A9B1A9D42F0DBE9E725
:10385000002DA9D0049E28003900FCF7EFFC039B43
:10386000013E5B5C280033703900FCF761FC051EEB
:10387000F1D1082F09D12368DB0706D563682269D7
:10388000934202DC3023013E3370049B9B1B236177
:10389000079B09AA00932100069B0598FFF782FE6B
:1038A000431CB3D1012040420BB0F0BDC240000820
:1038B000B140000870B506000D001400002804D0C7
:1038C0008369002B01D1FFF735FC124B9C4211D1CB
:1038D0007468A368013BA360002B05DAA2699342D8
:1038E00012DBEBB20A2B0FD02368E8B25A1C22601D
:1038F0001D7070BD084B9C4201D1B468E9E7074BCD
:103900009C42E6D1F468E4E722002900300000F090
:1039100065F8EEE76040000880400008404000087D
:10392000002370B5064C050008002360FFF7A2F8DD
:10393000431C03D12368002B00D02B6070BDC04610
:10394000E40C002070B50C000E25495F00F0C6FAAB
:10395000002803DB636D1B18636570BDA389024AF1
:103960001340A381F9E7C046FFEFFFFFF8B51F0042
:103970008B8905000C001600DB0505D50E23C95EFA
:103980000022022300F0D2F9A389054A280013403F
:10399000A38132000E23E15E3B0000F075F8F8BD14
:1039A000FFEFFFFF70B50C000E25495F00F0BEF978
:1039B000A389421C03D1054A1340A38170BD802214
:1039C00052011343A3816065F8E7C046FFEFFFFF94
:1039D00010B50E23C95E00F0E1F810BDF8B5050082
:1039E0000E001400002804D08369002B01D1FFF7DA
:1039F000A1FB224B9C422DD16C68A369A360A389D3
:103A00001B0731D52369002B2ED023682269F7B21A
:103A1000981A6369F6B2984205DB2100280000F08D
:103A200059F9002826D1A3680130013BA36023681F
:103A30005A1C22601F706369984204D0A389DB0777
:103A40001AD50A2E18D12100280000F043F90028C9
:103A500012D00FE00A4B9C4201D1AC68CDE7094B74
:103A60009C42CAD1EC68C8E72100280000F020F889
:103A70000028CAD0012676423000F8BD6040000818
:103A8000804000084040000870B5050008001100A3
:103A90000022064C22601A00FEF7DEFF431C03D111
:103AA0002368002B00D02B6070BDC046E40C0020C2
:103AB000364B70B51D6806000C00002D05D0AB69B3
:103AC000002B02D12800FFF735FB314B9C420FD170
:103AD0006C680C23E25E93B219072DD4D90611D479
:103AE00009230120336037331343A381404270BD63
:103AF000284B9C4201D1AC68EBE7274B9C42E8D1B4
:103B0000EC68E6E75B0713D5616B002908D023005A
:103B10004433994202D0300000F096F900236363E9
:103B20002422A3899343A381002363602369236034
:103B30000823A2891343A3812369002B0BD1A02161
:103B40008022A389890092000B40934203D0210078
:103B5000300000F027F90123A289134011D000237F
:103B6000A36063695B42A361002023698342BED1E5
:103B70000C23E25E1306BAD540231343A381013818
:103B8000B5E7920700D46369A360EDE7D400002095
:103B9000604000088040000840400008002370B5E5
:103BA000064C050008002360FEF77EFF431C03D18E
:103BB0002368002B00D02B6070BDC046E40C0020B1
:103BC000F7B58A8905000C00130760D44B68002BF9
:103BD00004DC0B6C002B01DC0020FEBDE76A002F2B
:103BE000FAD000232E682B6080235B011A4034D06A
:103BF000606DA3895B0706D56368C01A636B002BF1
:103C000001D0236CC01A0200216A00232800E76A51
:103C1000B847A189431C06D12B681D2B31D82C4AEB
:103C2000DA40D3072DD50023636023692360CB04DA
:103C300005D5431C02D12B68002B00D16065616B58
:103C40002E600029C8D023004433994202D02800B6
:103C500000F0FAF800206063BFE70123216A280022
:103C6000B847431CC5D12B68002BC2D01D2B01D0F7
:103C7000162B01D12E60AFE74023A2891343A38105
:103C8000ABE740230B430120A3814042A5E70F6926
:103C9000002FA1D00B680F60DB1B0193002392075C
:103CA00000D14B69A360019B002B00DC94E7019BD2
:103CB0003A00216A2800A66AB047002803DC4023A6
:103CC000A2891343DFE7019B3F181B1A0193EAE720
:103CD000010040200B6970B505000C00002B01D1DC
:103CE000002070BD002804D08369002B01D1FFF7AC
:103CF00021FA0B4B9C4209D16C680C22A35E002B6D
:103D0000EED021002800FFF75BFFEAE7054B9C425D
:103D100001D1AC68F1E7044B9C42EED1EC68ECE7D2
:103D200060400008804000084040000870B5050071
:103D3000080011000022064C22601A00FEF7BEFEA9
:103D4000431C03D12368002B00D02B6070BDC046FC
:103D5000E40C002070B50E001D000E23C95E90B06B
:103D60001400002907DA00232B60B3891B0611D445
:103D70008023DB000FE001AA00F0C4F80028F2DB8A
:103D8000F022029B12021340054A9B185A425341EB
:103D90002B60EDE740230020236010B070BDC046CB
:103DA00000E0FFFFF7B502268B8905000C003342C7
:103DB00006D0230047332360236101236361F7BDED
:103DC00001AB6A46FFF7C6FF009907002800FFF71E
:103DD00047FA002808D10C22A35E9A05EFD40322EB
:103DE00093431E43A681E4E70F4BAB628023A28975
:103DF00020601343A381009B20616361019B002B22
:103E00000DD00E23E15E280000F08EF8002806D0C9
:103E10000322A38993431A0001231343A381A0899A
:103E20003843A081CBE7C046B1300008C9B2821840
:103E3000904201D10020704703788B42FBD00130C3
:103E4000F6E770477047000070B50500002910D0F4
:103E50000C1F2368002B00DAE4182800FFF7F1FF9D
:103E60001D4A1368002B05D1636014602800FFF71A
:103E7000E9FF70BDA34209D9216860188342F3D1DC
:103E800018685B6841182160EEE713005A68002A41
:103E900001D0A242F9D919685818A0420BD1206864
:103EA0000918581819608242E0D110685268411808
:103EB00019605A60DAE7A04202D90C232B60D5E7DB
:103EC00021686018824203D110685268411821604D
:103ED00062605C60CAE7C0467406002070B50500E9
:103EE000080011000022064C22601A00FEF7A6FD11
:103EF000431C03D12368002B00D02B6070BDC0464B
:103F0000E40C0020002370B5064C050008001100E9
:103F10002360FEF7CCFD431C03D12368002B00D0A7
:103F20002B6070BDE40C0020002370B5064C05002A
:103F300008002360FEF7C0FD431C03D12368002B5B
:103F400000D02B6070BDC046E40C0020F8B5C04620
:103F5000F8BC08BC9E467047F8B5C046F8BC08BC23
:043F60009E467047C2
:103F640002030405060708090A0B0C0D0E0F1010B6
:103F74000102030405060708090A0B0C0D0E0F10B5
:103F84004552524F523A2000496E76616C69642062
:103F94004465766963652068616E646C6500496E8A
:103FA40076616C696420436C6173732068616E642C
:103FB4006C6500000000000000000001020304061C
:103FC4000708090002010244465520436F6E6669E2
:103FD400670044465520496E7465726661636500E6
:103FE400416C746572656420436172626F6E204C2B
:103FF40074640049726F6E4C696E6B204669726D11
:1040040077617265205570646174650040496E740F
:1040140065726E616C20466C6173682F307830383D
:104024003030303030302F31362A30324B612C343E
:10403400382A30324B670000D8000020000000000E
:10404400000000000000000000000000000000006C
:10405400000000000000000000000000000000005C
:10406400000000000000000000000000000000004C
:10407400000000000000000000000000000000003C
:10408400000000000000000000000000000000002C
:10409400000000000000000000000000232D302B71
:1040A4002000686C4C006566674546470030313235
:1040B400333435363738394142434445460030318C
:1040C40032333435363738396162636465660000EB
:0440D400E9000008F7
:0440D800C10000081B
:1040DC00491D0008011D0008D51D00088D1B000896
:1040EC005D210008592100085D1B0008591B0008C0
:1040FC0051210008552100084D1B00084D1B0008DC
:10410C004D1B0008611B00086D1B000809021B00F9
:10411C00010102C0320904000000FE01020609215F
:10412C000BFF0000041A01000A0600020000004008
:10413C000100000000127A00092E0008152E00085C
:10414C00892E0008A52E0008452E0008C12E000857
:10415C00DD2E00081201000200000040830411DF74
:10416C000002010203010000040309041A03000009
:10417C000000000000000000000000000000000033
:10418C000000000000000000104000087D2F000817
:10419C00732F0008552F00081B2F0008F92E00085C
:1041AC000D2F0008D800002000000000604000081F
:1041BC0080400008404000080000000000000000A3
:1041CC0000000000000000000000000000000000E3
:1041DC0000000000000000000000000000000000D3
:1041EC0000000000000000000000000000000000C3
:1041FC0000000000000000000000000000000000B3
:08420C000000000000000000AA
:0400000508002F8937
:00000001FF
